:100000000C94B9000C94D6000C94D6000C94D60035
:100010000C94D6000C94D6000C94D6000C94D60008
:100020000C94D6000C94D6000C9495030C94CD033C
:100030000C94D6000C94D6000C94D6000C94D600E8
:100040000C94D6000C94D6000C94D6000C94D600D8
:100050000C94D6000C94D6000C94D6000C94D600C8
:100060000C94D6000C94D6000C94D6000C94D600B8
:100070000C94D6000C94D6000C94D6000C94D600A8
:100080000C94D6000C94D6000C94D6000C94D60098
:100090000C94D6000C94D6000C94D6000C94D60088
:1000A0000C94D6000C94D6000C94D6000A2042750D
:1000B00074746F6E20507265737365643A2000002B
:1000C000010000560112000200001301430003006A
:1000D000000F010401030904FB001202030904F3E9
:1000E000000603030904E900080803340031003066
:1000F00000000006034D003200000012034A002EEB
:100100000020004600690065006E006500000004E4
:1001100003090409024300020100C032090400007F
:10012000010202010005240010010524010101045F
:100130002402060524060001070582031000400979
:10014000040100020A000000070503024000000746
:100150000584024000001201000202000010C016D7
:100160007A040001010203010001C112018036017D
:10017000813611241FBECFEFDAE0DEBFCDBF11E024
:10018000A0E0B1E0ECECFDE002C005900D92A830DB
:10019000B107D9F721E0A8E0B1E001C01D92AE306F
:1001A000B207E1F70E941C060C94A3060C94000011
:1001B000CF93DF9383B182958F7091E0892781700F
:1001C000C82F80E0D82F80910801909109018C17E9
:1001D0009D0759F04B9A8CEA90E00E941E05809191
:1001E0009400909195000E948305D0930901C093DB
:1001F0000801DF91CF9108958091E80080FFFCCF46
:10020000089581E08093D70080EA8093D80082E14E
:1002100089BD09B400FEFDCF80E98093D80010921B
:10022000E00010920D0110920A018CE08093E20030
:100230007894089580910D0108959FB7F894809166
:100240000D01811103C09FBF8FEF089583E080935C
:10025000E9008091E80085FFF6CF8091F1002091C0
:10026000E80025FD03C02BE62093E8009FBF08951A
:100270009FB7F89480910D01882329F083E0809343
:10028000E9008091F2009FBF089580910D018823BD
:1002900059F08FB7F89493E09093E9002BE6909192
:1002A000E80095FD02C08FBF08952093E800F7CFC6
:1002B00090910D01911102C08FEF08959FB7F894AE
:1002C00024E02093E90020910B01222341F02091AA
:1002D000E80025FD02C09FBFEFCF10920B012091D7
:1002E000E400275E34E04091E80045FD12C09FBF66
:1002F0009091E400921304C081E080930B01DCCF65
:1003000090910D019923C1F29FB7F8943093E900C1
:10031000EACF8093F1008091E80085FD03C08AE375
:100320008093E80085E080930C019FBF80E00895F2
:1003300090910D01992351F09FB7F89424E02093F8
:10034000E9002091E80025FD03C09FBF8FEF0895CD
:100350008093F1008091E80085FD03C08AE38093DB
:10036000E80085E080930C019FBF80E00895209114
:100370000D01211102C08FEF08952FB7F89434E0DA
:100380003093E90030910B01332341F03091E800C4
:1003900035FD02C02FBFEFCF10920B0134E040E4D7
:1003A0005AE3A5E06115710519F42FBF80E00895A7
:1003B000E091E400E75EF091E800F5FD12C02FBF88
:1003C0002091E4002E1304C081E080930B01D3CF71
:1003D00020910D01222379F22FB7F8943093E90090
:1003E000EACFE091F200B42FBE1BB617170611F04A
:1003F00008F0B62FEB2FF0E06E1B7F0BB13408F046
:100400003FC1EB55F94F0C943706FC018191809365
:10041000F100CF01FC0181918093F100CF01FC013B
:1004200081918093F100CF01FC0181918093F100D3
:10043000CF01FC0181918093F100CF01FC018191FA
:100440008093F100CF01FC0181918093F100CF01F5
:10045000FC0181918093F100CF01FC018191809397
:10046000F100CF01FC0181918093F100CF01FC01EB
:1004700081918093F100CF01FC0181918093F10083
:10048000CF01FC0181918093F100CF01FC018191AA
:100490008093F100CF01FC0181918093F100CF01A5
:1004A000FC0181918093F100CF01FC018191809347
:1004B000F100CF01FC0181918093F100CF01FC019B
:1004C00081918093F100CF01FC0181918093F10033
:1004D000CF01FC0181918093F100CF01FC0181915A
:1004E0008093F100CF01FC0181918093F100CF0155
:1004F000FC0181918093F100CF01FC0181918093F7
:10050000F100CF01FC0181918093F100CF01FC014A
:1005100081918093F100CF01FC0181918093F100E2
:10052000CF01FC0181918093F100CF01FC01819109
:100530008093F100CF01FC0181918093F100CF0104
:10054000FC0181918093F100CF01FC0181918093A6
:10055000F100CF01FC0181918093F100CF01FC01FA
:1005600081918093F100CF01FC0181918093F10092
:10057000CF01FC0181918093F100CF01FC018191B9
:100580008093F100CF01FC0181918093F100CF01B4
:10059000FC0181918093F100CF01FC018191809356
:1005A000F100CF01FC0181918093F100CF01FC01AA
:1005B00081918093F100CF01FC0181918093F10042
:1005C000CF01FC0181918093F100CF01FC01819169
:1005D0008093F100CF01FC0181918093F100CF0164
:1005E000FC0181918093F100CF01FC018191809306
:1005F000F100CF01FC0181918093F100CF01FC015A
:1006000081918093F100CF01FC0181918093F100F1
:10061000CF01FC0181918093F100CF01FC01819118
:100620008093F100CF01FC0181918093F100CF0113
:10063000FC0181918093F100CF01FC0181918093B5
:10064000F100CF01FC0181918093F100CF01FC0109
:1006500081918093F100CF01FC0181918093F100A1
:10066000CF01FC0181918093F100CF01FC018191C8
:100670008093F100CF01FC0181918093F100CF01C3
:10068000FC0181918093F100CF01E091E800E5FF4A
:100690005093E800A0930C0185CE8FB7F894909109
:1006A0000C01992341F094E09093E9009AE3909330
:1006B000E80010920C018FBF089580910401089505
:1006C00080910501089580910601089580910A01A5
:1006D00008959FB7F89420910D01211103C09FBF89
:1006E0008FEF089522E02093E9003091E80035FF74
:1006F000F6CF31EA3093F10030E23093F1001092FE
:10070000F1001092F1001092F1001092F10020938C
:10071000F1001092F1008093F1001092F1008AE351
:100720008093E8009FBF80E008951F921FB61F923C
:1007300011248F939F938091E1001092E10083FF39
:1007400011C01092E90091E09093EB001092EC0040
:1007500092E19093ED0098E09093F00010920D01DB
:1007600010920A0182FF13C080910D01882379F055
:1007700080910C01882359F0815080930C018111E4
:1007800006C084E08093E9008AE38093E8009F91AB
:100790008F911F901FBE1F9018951F920F920FB63A
:1007A0000F921124EF92FF920F931F932F933F9379
:1007B0004F935F936F937F938F939F93AF93BF9369
:1007C000CF93DF93EF93FF931092E9008091E800BD
:1007D00083FF72C0D091F100C091F100E090F10070
:1007E0008091F100F82E0091F1008091F100182F16
:1007F0008091F1009091F10022EF2093E800C63043
:1008000009F066C02FEB30E0F90145915491E416F0
:10081000F50609F04AC0F901329645915491041742
:10082000150709F042C0F901349645915491F90138
:100830003696E4918F3F910519F010F08FEF90E01C
:10084000E81708F48E2F3EEF9091E800292F2570CD
:10085000D9F392FD13C0982F813108F090E1FA018D
:10086000292F21112FC0490F511DE82FE91B9E2F61
:100870003093E800E11124C0803110F5FF91EF9131
:10088000DF91CF91BF91AF919F918F917F916F91A8
:100890005F914F913F912F911F910F91FF90EF909A
:1008A0000F900FBE0F901F901895295F3F4F40E0AB
:1008B000293E340709F0A8CF81E28093EB00DECF18
:1008C000892FC2CF64916093F10021503196C9CF36
:1008D000C53051F48EEF8093E8000E94FC008E2D0D
:1008E00080688093E300CACFC93069F5D111E4CFA5
:1008F000E0920D0110920A0110920C018EEF80938C
:10090000E80021E088E691E02093E900AC014F5F28
:100910005F4FFC0134913093EB00332391F0FA01E7
:1009200044914093EC003196E4910396E093ED00FE
:100930002F5F253049F78EE18093EA001092EA009C
:100940009DCFCA01F5CFC83069F4D03809F0B4CFD3
:100950000E94FC0080910D018093F1008EEF809346
:10096000E8008CCFC13289F4D13A09F0A5CF0E94BA
:10097000FC0080E091E0FC012191CF012093F10087
:10098000F1E087309F07B9F7E9CFC032B1F4D13237
:1009900009F092CF8091E80082FFFCCF80E091E0E7
:1009A0002091F100FC012193CF01F1E087309F07F6
:1009B000B9F78BEF8093E800D1CFC23241F4D13246
:1009C00009F07ACFE0920A010E94FC00C7CFC11162
:1009D00012C00E94FC00D23849F40093E900C09193
:1009E000EB00C5FBCC27C0F91092E900C093F100E1
:1009F0001092F100B3CF8C2F8D7F813009F05CCF46
:100A0000D23009F059CFEF2809F056CF0F778FEF8A
:100A1000800F843008F050CF8EEF8093E800009371
:100A2000E900C33009F448CF89E18093EB0081E00D
:100A300090E001C0880F0A95EAF77ECF1F93CF930D
:100A4000DF93EC01FE011491112351F01A3019F4D7
:100A50008DE00E945801812F0E9458012196F2CF0B
:100A6000DF91CF911F91089597E38A3008F490E3C6
:100A7000890F0C945801CF93C82F82958F700E94D4
:100A800034058C2F8F70CF910C943405CF93C82FE1
:100A9000892F0E943B058C2FCF910C943B050C9421
:100AA0003B05EF92FF920F931F93CF93DF9300D0FC
:100AB00000D000D00F92CDB7DEB78E010F5F1F4F71
:100AC00027E0F80111922A95E9F74AE0B8010E945F
:100AD0003D067E01F8E0EF0EF11CF80181918F01D7
:100AE00081110E9458010E151F05B9F727960FB600
:100AF000F894DEBF0FBECDBFDF91CF911F910F9154
:100B0000FF90EF900895EF92FF920F931F93CF9372
:100B1000DF9300D000D000D0CDB7DEB78E010F5FDD
:100B20001F4F26E0F80111922A95E9F74AE0B80133
:100B30000E9479067E01F6E0EF0EF11CF80181912A
:100B40008F0181110E9458010E151F05B9F72696D5
:100B50000FB6F894DEBF0FBECDBFDF91CF911F91CE
:100B60000F91FF90EF900895EF92FF920F931F93D4
:100B7000CF93DF93CDB7DEB72B970FB6F894DEBFD8
:100B80000FBECDBF8E010F5F1F4F2BE0F8011192FA
:100B90002A95E9F72AE0A8010E9448067E01FCE0B8
:100BA000EF0EF11CF80181918F0181110E94580113
:100BB0000E151F05B9F72B960FB6F894DEBF0FBEC2
:100BC000CDBFDF91CF911F910F91FF90EF900895CE
:100BD000EF92FF920F931F93CF93DF93CDB7DEB7C2
:100BE0002B970FB6F894DEBF0FBECDBF8E010F5FFF
:100BF0001F4F2BE0F80111922A95E9F72AE0A8018E
:100C00000E9457067E01FBE0EF0EF11CF801819176
:100C10008F0181110E9458010E151F05B9F72B96FF
:100C20000FB6F894DEBF0FBECDBFDF91CF911F91FD
:100C30000F91FF90EF90089580E8809361001092EB
:100C400061000E940101569A5E9A80919100846031
:100C500080939100809191008D7F8093910080918D
:100C600091008160809391000E94D800FDCFEE0F2B
:100C7000FF1F0590F491E02D0994BB274A3031F411
:100C8000992322F4BDE2909581959F4F0C947A06AA
:100C9000BB272A3051F4992342F4BDE29095809508
:100CA000709561957F4F8F4F9F4F0C945806BB27CF
:100CB000FA01A62F6217710581059105330B30FBF0
:100CC00066F0AA27660F771F881F991FAA1FA21711
:100CD00010F0A21B63953850A9F7A05DAA3308F065
:100CE000A95DA19336F7B111B1931082CA010C949A
:100CF0009306BB27FB015527AA27880F991FAA1F18
:100D0000A41710F0A41B83955051B9F7A05DAA3326
:100D100008F0A95DA193009779F7B111B1931192F1
:100D2000CB010C949306DC01FC01672F71917723B2
:100D3000E1F7329704C07C916D9370836291AE1796
:100D4000BF07C8F30895F894FFCF450340033B0362
:100D5000360331032C03270322031D031803130357
:100D60000E0309030403FF02FA02F502F002EB028C
:100D7000E602E102DC02D702D202CD02C802C302BF
:100D8000BE02B902B402AF02AA02A502A0029B02EF
:100D9000960291028C02870282027D02780273021F
:100DA0006E02690264025F025A02550250024B024F
:100DB000460241023C02370232022D02280223027F
:0C0DC0001E02190214020F020A020502B2
:080DCC0000E100000000080036
:00000001FF
