:100000000C9456000C9460000C9460000C946000FA
:100010000C9460000C9460000C9460000C946000E0
:100020000C9460000C9460000C9460000C946000D0
:100030000C9460000C9460000C9460000C946000C0
:100040000C9460000C9460000C9460000C946000B0
:100050000C9460000C9460000C9460000C946000A0
:100060000C9460000C9460000C9460000C94600090
:100070000C9460000C9460000C9460000C94600080
:100080000C9460000C9460000C9460000C94600070
:100090000C9460000C9460000C9460000C94600060
:1000A0000C9460000C9460000C94600011241FBE3E
:1000B000CFEFDAE0DEBFCDBF0E94E0010C944B042D
:1000C0000C9400002F923F924F925F926F927F921A
:1000D0008F929F92AF92BF92CF92DF92EF92FF9258
:1000E0000F931F93CF93DF9300D000D0CDB7DEB72F
:1000F0006B017C01CA01B90120E030E040E251E42B
:100100000E947F022B013C0120E030E040E251E4FC
:10011000C701B6010E947F0220E030E04AE754E4C4
:100120000E94DE030E94F102072E000C880B990B3F
:100130000E9429034B015C0120E030E04AE755E4CE
:100140000E94DE036B017C010E94F80269837A83BE
:100150008B839C8320E030E040E85FE3C701B60179
:100160000E947A0201E010E087FD02C009811A8135
:100170001A82198280E9282E3324339429813A8106
:10018000B901330F880B990B0E942903A301920137
:100190000E94DE0320E030E04CE153E40E94DE03E5
:1001A0000E94F102709399006093980020E030E083
:1001B00040E85FE3C701B6010E947A0287FD3CC0B8
:1001C00020E03FEF4FE757E4C701B6010E94D90393
:1001D000181694F520E030E040E251E4C501B40186
:1001E0000E94DE030E94F80261157105F9F489810D
:1001F0009A8101969A8389830B9709F0BFCF0F905C
:100200000F900F900F90DF91CF911F910F91FF9062
:10021000EF90DF90CF90BF90AF909F908F907F90A6
:100220006F905F904F903F902F900895C10101977C
:10023000F1F761507109D8CFC8010197F1F7D7CF15
:100240002F923F924F925F926F927F928F929F92E6
:10025000AF92BF92CF92DF92EF92FF920F931F93D4
:10026000CF93DF9300D000D0CDB7DEB76B017C0118
:10027000CA01B90120E030E040E251E40E947F026F
:100280002B013C0120E030E040E251E4C701B6011F
:100290000E947F0220E030E04AE754E40E94DE033F
:1002A0000E94F102072E000C880B990B0E94290373
:1002B0004B015C0120E030E04AE755E40E94DE0398
:1002C0006B017C010E94F80269837A838B839C8393
:1002D00020E030E040E85FE3C701B6010E947A0207
:1002E00001E010E087FD02C009811A812AE030E0B8
:1002F0003A83298380E9282E3324339429813A8153
:10030000B901330F880B990B0E942903A3019201B5
:100310000E94DE0320E030E04CE153E40E94DE0363
:100320000E94F102709399006093980020E030E001
:1003300040E85FE3C701B6010E947A0287FD3CC036
:1003400020E03FEF4FE757E4C701B6010E94D90311
:10035000181694F520E030E040E251E4C501B40104
:100360000E94DE030E94F80261157105F9F489818B
:100370009A8101979A838983019609F0BFCF0F90E4
:100380000F900F900F90DF91CF911F910F91FF90E1
:10039000EF90DF90CF90BF90AF909F908F907F9025
:1003A0006F905F904F903F902F900895C1010197FB
:1003B000F1F761507109D8CFC8010197F1F7D7CF94
:1003C00080E880936100109261003E9A80919100D4
:1003D000846080939100809191008D7F8093910043
:1003E0008091910081608093910080919100806163
:1003F000809391008091910088608093910080911A
:100400009000826080939000809190008E7F809316
:10041000900080919000806880939000809190007F
:100420008F7B809390008CE990E09093970080936D
:100430009600C0E9D1E020E030E040E85FE36DECF9
:100440007CEC8CEC9DE30E94620020E030E040E810
:100450005FE36DEC7CEC8CEC9EE30E94200120E0DD
:1004600030E040E05FE36DEC7CEC8CEC9DE30E94BF
:10047000620020E030E040E05FE36DEC7CEC8CEC6F
:100480009EE30E94200180E29EE4FE013197F1F795
:100490000197D9F720E030E040E85FE36DEC7CECB9
:1004A0008CEC9DE30E94620020E030E040E85FE3D6
:1004B0006DEC7CEC8CEC9EE30E94200120E030E0AF
:1004C00040E05FE36DEC7CEC8CEC9DE30E9462000D
:1004D00020E030E040E05FE36DEC7CEC8CEC9EE3F0
:1004E0000E94200180E29EE4FE013197F1F701971E
:1004F000D9F7A1CF0E94640308F481E008950E9417
:1005000093020C949F030E94980358F00E94910359
:1005100040F029F45F3F29F00C94880351110C94AA
:10052000D3030C948E030E94B00368F39923B1F3B4
:10053000552391F3951B550BBB27AA276217730709
:10054000840738F09F5F5F4F220F331F441FAA1F9D
:10055000A9F335D00E2E3AF0E0E832D09150504059
:10056000E695001CCAF72BD0FE2F29D0660F771F07
:10057000881FBB1F261737074807AB07B0E809F0ED
:10058000BB0B802DBF01FF2793585F4F3AF09E3F72
:10059000510578F00C9488030C94D3035F3FE4F387
:1005A000983ED4F3869577956795B795F7959F5FB5
:1005B000C9F7880F911D9695879597F90895E1E001
:1005C000660F771F881FBB1F621773078407BA0760
:1005D00020F0621B730B840BBA0BEE1F88F7E095BB
:1005E00008950E94F8026894B1110C94D303089501
:1005F0000E94B80388F09F5798F0B92F9927B751F8
:10060000B0F0E1F0660F771F881F991F1AF0BA95B6
:10061000C9F714C0B13091F00E94D203B1E008953F
:100620000C94D203672F782F8827B85F39F0B93F31
:10063000CCF3869577956795B395D9F73EF4909569
:100640008095709561957F4F8F4F9F4F0895E894E7
:1006500009C097FB3EF490958095709561957F4F0A
:100660008F4F9F4F9923A9F0F92F96E9BB279395B8
:10067000F695879577956795B795F111F8CFFAF4C8
:10068000BB0F11F460FF1BC06F5F7F4F8F4F9F4FF9
:1006900016C0882311F096E911C0772321F09EE857
:1006A000872F762F05C0662371F096E8862F70E0BD
:1006B00060E02AF09A95660F771F881FDAF7880F97
:1006C0009695879597F90895990F0008550FAA0BED
:1006D000E0E8FEEF16161706E807F907C0F0121655
:1006E0001306E407F50798F0621B730B840B950B58
:1006F00039F40A2661F0232B242B252B21F40895AD
:100700000A2609F4A140A6958FEF811D811D089549
:1007100097F99F6780E870E060E008959FEF80ECB4
:10072000089500240A941616170618060906089557
:1007300000240A9412161306140605060895092EBD
:100740000394000C11F4882352F0BB0F40F4BF2B2C
:1007500011F460FF04C06F5F7F4F8F4F9F4F08956C
:1007600057FD9058440F551F59F05F3F71F0479562
:10077000880F97FB991F61F09F3F79F08795089547
:10078000121613061406551FF2CF4695F1DF08C066
:10079000161617061806991FF1CF86957105610583
:1007A00008940895E894BB2766277727CB0197F92B
:1007B00008950E94640308F48FEF08950E94F103E6
:1007C0000C949F030E94910338F00E94980320F03C
:1007D000952311F00C9488030C948E0311240C942F
:1007E000D3030E94B00370F3959FC1F3950F50E0BF
:1007F000551F629FF001729FBB27F00DB11D639FD3
:10080000AA27F00DB11DAA1F649F6627B00DA11D78
:10081000661F829F2227B00DA11D621F739FB00D1E
:10082000A11D621F839FA00D611D221F749F33278E
:10083000A00D611D231F849F600D211D822F762F27
:100840006A2F11249F5750409AF0F1F088234AF004
:10085000EE0FFF1FBB1F661F771F881F9150504070
:10086000A9F79E3F510580F00C9488030C94D303A4
:100870005F3FE4F3983ED4F3869577956795B795F7
:10088000F795E7959F5FC1F7FE2B880F911D969511
:0A089000879597F90895F894FFCFBB
:00000001FF
