:100000000C9456000C9460000C9460000C946000FA
:100010000C9460000C9460000C9460000C946000E0
:100020000C9460000C9460000C9460000C946000D0
:100030000C9460000C9460000C9460000C946000C0
:100040000C9460000C9460000C9460000C946000B0
:100050000C9460000C9460000C9460000C946000A0
:100060000C9460000C9460000C9460000C94600090
:100070000C9460000C9460000C9460000C94600080
:100080000C9460000C9460000C9460000C94600070
:100090000C9460000C9460000C9460000C94600060
:1000A0000C9460000C9460000C94600011241FBE3E
:1000B000CFEFDAE0DEBFCDBF0E9462000C948E006D
:1000C0000C94000080E880936100109261003E9AD9
:1000D000809191008061809391008091910088606F
:1000E0008093910080919000826080939000809135
:1000F000900080688093900080919100846080934C
:10010000910085E39CE090939900809398008AE6A3
:1001100098E19093970080939600FFCFF894FFCFDB
:00000001FF
