:100000000C94F6000C9413010C9413010C9413013E
:100010000C9413010C9413010C9413010C94130110
:100020000C9413010C9413010C94E2030C941A0425
:100030000C9413010C9413010C9413010C941301F0
:100040000C9413010C9413010C9413010C941301E0
:100050000C9413010C9413010C9413010C941301D0
:100060000C9413010C9413010C9413010C941301C0
:100070000C9413010C9413010C9413010C941301B0
:100080000C9413010C9413010C9413010C941301A0
:100090000C9413010C9413010C9413010C94130190
:1000A0000C9413010C9413010C9413016E6F2062D5
:1000B0006561636F6E206163717569726564206F3D
:1000C0006E20310037303020487A206163717569C5
:1000D000726564206F6E2031006672657175656EA1
:1000E0006379206F6E20313A20006E6F2062656167
:1000F000636F6E206163717569726564206F6E2035
:10010000330037303020487A206163717569726539
:1001100064206F6E2033006672657175656E637959
:10012000206F6E20333A20000A696E697469616C31
:10013000697A65642E2E2E0000010000CF011200A6
:100140000200008C01430003000088010401030940
:1001500004740112020309046C010603030904621A
:1001600001080803340031003000000006034D0090
:100170003200000012034A002E00200046006900F1
:1001800065006E00650000000403090409024300D5
:10019000020100C03209040000010202010005242E
:1001A00000100105240101010424020605240600B3
:1001B000010705820310004009040100020A000043
:1001C00000070503024000000705840240000012FA
:1001D00001000202000010C0167A040001010203AF
:1001E000010001C1120180360181360011241FBEB9
:1001F000CFEFDAE0DEBFCDBF11E0A0E0B1E0E8EB89
:10020000F0E102C005900D92A830B107D9F721E0C6
:10021000A8E0B1E001C01D92A431B207E1F70E944D
:1002200069060C9419080C940000C59BFECFC59A72
:1002300080919600909197002091120130911301C6
:10024000821B930B90930D0180930C01809196007B
:100250009091970090931301809312010895B59B9C
:10026000FECFB59A809186009091870020910E0173
:1002700030910F01821B930B909311018093100119
:10028000809186009091870090930F0180930E01DA
:1002900008958091E80080FFFCCF089581E080936D
:1002A000D70080EA8093D80082E189BD09B400FEBE
:1002B000FDCF80E98093D8001092E00010920B01EE
:1002C000109208018CE08093E20078940895809168
:1002D0000B0108959FB7F89480910B01811103C021
:1002E0009FBF8FEF089583E08093E9008091E8003D
:1002F00085FFF6CF8091F1002091E80025FD03C035
:100300002BE62093E8009FBF08959FB7F894809153
:100310000B01882329F083E08093E9008091F200AB
:100320009FBF089580910B01882359F08FB7F894EF
:1003300093E09093E9002BE69091E80095FD02C0D0
:100340008FBF08952093E800F7CF90910B01911192
:1003500002C08FEF08959FB7F89424E02093E9003E
:1003600020910901222341F02091E80025FD02C0DF
:100370009FBFEFCF109209012091E400275E34E087
:100380004091E80045FD12C09FBF9091E400921398
:1003900004C081E080930901DCCF90910B01992387
:1003A000C1F29FB7F8943093E900EACF8093F1004F
:1003B0008091E80085FD03C08AE38093E80085E032
:1003C00080930A019FBF80E0089590910B019923CB
:1003D00051F09FB7F89424E02093E9002091E800C1
:1003E00025FD03C09FBF8FEF08958093F10080919A
:1003F000E80085FD03C08AE38093E80085E08093F0
:100400000A019FBF80E0089520910B01211102C0D5
:100410008FEF08952FB7F89434E03093E9003091CE
:100420000901332341F03091E80035FD02C02FBFB0
:10043000EFCF1092090134E040E45AE3A5E06115E2
:10044000710519F42FBF80E00895E091E400E75EA4
:10045000F091E800F5FD12C02FBF2091E4002E13AB
:1004600004C081E080930901D3CF20910B012223A6
:1004700079F22FB7F8943093E900EACFE091F200D7
:10048000B42FBE1BB617170611F008F0B62FEB2FCE
:10049000F0E06E1B7F0BB13408F03FC1E55EF74F13
:1004A0000C94AD07FC0181918093F100CF01FC0118
:1004B00081918093F100CF01FC0181918093F10043
:1004C000CF01FC0181918093F100CF01FC0181916A
:1004D0008093F100CF01FC0181918093F100CF0165
:1004E000FC0181918093F100CF01FC018191809307
:1004F000F100CF01FC0181918093F100CF01FC015B
:1005000081918093F100CF01FC0181918093F100F2
:10051000CF01FC0181918093F100CF01FC01819119
:100520008093F100CF01FC0181918093F100CF0114
:10053000FC0181918093F100CF01FC0181918093B6
:10054000F100CF01FC0181918093F100CF01FC010A
:1005500081918093F100CF01FC0181918093F100A2
:10056000CF01FC0181918093F100CF01FC018191C9
:100570008093F100CF01FC0181918093F100CF01C4
:10058000FC0181918093F100CF01FC018191809366
:10059000F100CF01FC0181918093F100CF01FC01BA
:1005A00081918093F100CF01FC0181918093F10052
:1005B000CF01FC0181918093F100CF01FC01819179
:1005C0008093F100CF01FC0181918093F100CF0174
:1005D000FC0181918093F100CF01FC018191809316
:1005E000F100CF01FC0181918093F100CF01FC016A
:1005F00081918093F100CF01FC0181918093F10002
:10060000CF01FC0181918093F100CF01FC01819128
:100610008093F100CF01FC0181918093F100CF0123
:10062000FC0181918093F100CF01FC0181918093C5
:10063000F100CF01FC0181918093F100CF01FC0119
:1006400081918093F100CF01FC0181918093F100B1
:10065000CF01FC0181918093F100CF01FC018191D8
:100660008093F100CF01FC0181918093F100CF01D3
:10067000FC0181918093F100CF01FC018191809375
:10068000F100CF01FC0181918093F100CF01FC01C9
:1006900081918093F100CF01FC0181918093F10061
:1006A000CF01FC0181918093F100CF01FC01819188
:1006B0008093F100CF01FC0181918093F100CF0183
:1006C000FC0181918093F100CF01FC018191809325
:1006D000F100CF01FC0181918093F100CF01FC0179
:1006E00081918093F100CF01FC0181918093F10011
:1006F000CF01FC0181918093F100CF01FC01819138
:100700008093F100CF01FC0181918093F100CF0132
:10071000FC0181918093F100CF01FC0181918093D4
:10072000F100CF01E091E800E5FF5093E800A093CD
:100730000A0185CE8FB7F89490910A01992341F070
:1007400094E09093E9009AE39093E80010920A01F4
:100750008FBF089580910401089580910501089547
:100760008091060108958091080108959FB7F8943B
:1007700020910B01211103C09FBF8FEF089522E04C
:100780002093E9003091E80035FFF6CF31EA30934D
:10079000F10030E23093F1001092F1001092F1007C
:1007A0001092F1001092F1002093F1001092F100EC
:1007B0008093F1001092F1008AE38093E8009FBFDC
:1007C00080E008951F921FB61F9211248F939F936C
:1007D0008091E1001092E10083FF11C01092E900C6
:1007E00091E09093EB001092EC0092E19093ED0079
:1007F00098E09093F00010920B011092080182FF94
:1008000013C080910B01882379F080910A0188231D
:1008100059F0815080930A01811106C084E08093D1
:10082000E9008AE38093E8009F918F911F901FBE9B
:100830001F9018951F920F920FB60F921124EF92EE
:10084000FF920F931F932F933F934F935F936F9359
:100850007F938F939F93AF93BF93CF93DF93EF9348
:10086000FF931092E9008091E80083FF72C0D0915D
:10087000F100C091F100E090F1008091F100F82EBC
:100880000091F1008091F100182F8091F10090917A
:10089000F10022EF2093E800C63009F066C028E39B
:1008A00031E0F90145915491E416F50609F04AC08A
:1008B000F9013296459154910417150709F042C089
:1008C000F901349645915491F9013696E4918F3FA0
:1008D000910519F010F08FEF90E0E81708F48E2FD3
:1008E0003EEF9091E800292F2570D9F392FD13C0B7
:1008F000982F813108F090E1FA01292F21112FC0A2
:10090000490F511DE82FE91B9E2F3093E800E1119C
:1009100024C0803110F5FF91EF91DF91CF91BF910D
:10092000AF919F918F917F916F915F914F913F9187
:100930002F911F910F91FF90EF900F900FBE0F908E
:100940001F901895295F3F4F41E02236340709F088
:10095000A8CF81E28093EB00DECF892FC2CF6491D4
:100960006093F10021503196C9CFC53051F48EEF1C
:100970008093E8000E9449018E2D80688093E300F7
:10098000CACFC93069F5D111E4CFE0920B011092C2
:10099000080110920A018EEF8093E80021E081EEB9
:1009A00091E02093E900AC014F5F5F4FFC0134916F
:1009B0003093EB00332391F0FA0144914093EC0023
:1009C0003196E4910396E093ED002F5F253049F7CF
:1009D0008EE18093EA001092EA009DCFCA01F5CF24
:1009E000C83069F4D03809F0B4CF0E944901809131
:1009F0000B018093F1008EEF8093E8008CCFC13221
:100A000089F4D13A09F0A5CF0E94490180E091E034
:100A1000FC012191CF012093F100F1E087309F0785
:100A2000B9F7E9CFC032B1F4D13209F092CF809159
:100A3000E80082FFFCCF80E091E02091F100FC0112
:100A40002193CF01F1E087309F07B9F78BEF8093B7
:100A5000E800D1CFC23241F4D13209F07ACFE0922E
:100A600008010E944901C7CFC11112C00E9449016B
:100A7000D23849F40093E900C091EB00C5FBCC27C4
:100A8000C0F91092E900C093F1001092F100B3CFC9
:100A90008C2F8D7F813009F05CCFD23009F059CF97
:100AA000EF2809F056CF0F778FEF800F843008F0D2
:100AB00050CF8EEF8093E8000093E900C33009F433
:100AC00048CF89E18093EB0081E090E001C0880F7E
:100AD0000A95EAF77ECF1F93CF93DF93EC01FE01D7
:100AE0001491112351F01A3019F48DE00E94A501E0
:100AF000812F0E94A5012196F2CFDF91CF911F9106
:100B0000089597E38A3008F490E3890F0C94A501C7
:100B1000CF93C82F82958F700E9481058C2F8F7084
:100B2000CF910C948105CF93C82F892F0E948805FF
:100B30008C2FCF910C9488050C948805EF92FF922E
:100B40000F931F93CF93DF9300D000D000D00F926C
:100B5000CDB7DEB78E010F5F1F4F27E0F80111926E
:100B60002A95E9F74AE0B8010E94B3077E01F8E050
:100B7000EF0EF11CF80181918F0181110E94A501F6
:100B80000E151F05B9F727960FB6F894DEBF0FBEF6
:100B9000CDBFDF91CF911F910F91FF90EF900895FE
:100BA000EF92FF920F931F93CF93DF9300D000D06B
:100BB00000D0CDB7DEB78E010F5F1F4F26E0F801E2
:100BC00011922A95E9F74AE0B8010E94EF077E01E9
:100BD000F6E0EF0EF11CF80181918F0181110E9466
:100BE000A5010E151F05B9F726960FB6F894DEBFBE
:100BF0000FBECDBFDF91CF911F910F91FF90EF906E
:100C00000895EF92FF920F931F93CF93DF93CDB789
:100C1000DEB72B970FB6F894DEBF0FBECDBF8E01A7
:100C20000F5F1F4F2BE0F80111922A95E9F72AE098
:100C3000A8010E94BE077E01FCE0EF0EF11CF80146
:100C400081918F0181110E94A5010E151F05B9F731
:100C50002B960FB6F894DEBF0FBECDBFDF91CF91BC
:100C60001F910F91FF90EF900895EF92FF920F93D5
:100C70001F93CF93DF93CDB7DEB72B970FB6F894C2
:100C8000DEBF0FBECDBF8E010F5F1F4F2BE0F801FF
:100C900011922A95E9F72AE0A8010E94CD077E016A
:100CA000FBE0EF0EF11CF80181918F0181110E9490
:100CB000A5010E151F05B9F72B960FB6F894DEBFE8
:100CC0000FBECDBFDF91CF911F910F91FF90EF909D
:100CD0000895CDB7DEB766970FB6F894DEBF0FBEA6
:100CE000CDBF80E880936100109261000E944E01A8
:100CF00088E893E120E931E0F9013197F1F70197B4
:100D0000D9F788E291E00E946B05809191008F7E77
:100D10008093910080919100877F809391008091D2
:100D200091008D7F80939100809191008E7F8093C0
:100D30009100809191008460809391008091910056
:100D40008D7F8093910080919100816080939100CC
:100D5000809191008F7B80939100C59A8091910042
:100D600080628093910010929500109294003F98B9
:100D7000809181008F7E8093810080918100877FA8
:100D800080938100809180008D7F8093800080918E
:100D900080008E7F809380008091810084608093AA
:100DA0008100809181008D7F8093810080918100FE
:100DB000816080938100809181008F7B809381008E
:100DC000B59A80918100806280938100549810923E
:100DD00085001092840000E315E720E931E0C901A5
:100DE0000197F1F701501109D1F7F12CE12C1E0107
:100DF00085E1280E311C86E0482E512C99E0692EA1
:100E00009DE3792E6E019BE0C90ED11CFE01319647
:100E10005F01FE8BED8B46010E94150180910C0154
:100E200090910D01F401819391934F010E942F0144
:100E30008091100190911101ED89FE898193919328
:100E4000FE8BED8B8214930439F7F6018191919119
:100E50006F01080F191FF501819191915F01E80E53
:100E6000F91EC214D30489F7C801B2010E94990780
:100E70008B01CB010E94D0058AE00E94A5018DE084
:100E80000E94A501C701B2010E9499076B017B0175
:100E9000C6010E94D0058AE00E94A5018DE00E9453
:100EA000A50187E191E00E946B05C301B8010E9492
:100EB0009907CB010E94D0058AE00E94A5018DE030
:100EC0000E94A501C8014497059768F582E091E06A
:100ED0000E946B058AE00E94A5018DE00E94A50199
:100EE00089ED90E00E946B05C301B6010E9499074D
:100EF000CB010E94D0058AE00E94A5018DE00E94EE
:100F0000A501F4E1CF1AD10885E0C816D10470F428
:100F100084EC90E00E946B058AE00E94A5018DE0C0
:100F20000E94A5016FCF8AEE90E0D2CF8CEA90E0CC
:100F3000F1CFAA1BBB1B51E107C0AA1FBB1FA617FD
:100F4000B70710F0A61BB70B881F991F5A95A9F772
:100F500080959095BC01CD010895EE0FFF1F05907F
:100F6000F491E02D0994BB274A3031F4992322F4FF
:100F7000BDE2909581959F4F0C94F007BB272A30D6
:100F800051F4992342F4BDE2909580957095619556
:100F90007F4F8F4F9F4F0C94CE07BB27FA01A62F90
:100FA0006217710581059105330B30FB66F0AA27A6
:100FB000660F771F881F991FAA1FA21710F0A21B88
:100FC00063953850A9F7A05DAA3308F0A95DA193F5
:100FD00036F7B111B1931082CA010C940908BB27EE
:100FE000FB015527AA27880F991FAA1FA41710F0E5
:100FF000A41B83955051B9F7A05DAA3308F0A95DF1
:10100000A193009779F7B111B1931192CB010C9490
:101010000908DC01FC01672F71917723E1F7329712
:1010200004C07C916D9370836291AE17BF07C8F3C3
:101030000895F894FFCF92038D03880383037E0302
:10104000790374036F036A03650360035B0356034C
:1010500051034C03470342033D03380333032E037C
:10106000290324031F031A03150310030B030603AC
:101070000103FC02F702F202ED02E802E302DE02E3
:10108000D902D402CF02CA02C502C002BB02B60214
:10109000B102AC02A702A2029D02980293028E0244
:1010A000890284027F027A02750270026B02660274
:0810B00061025C0257025202CA
:0810B80000E100000000080047
:00000001FF
