:100000000C94FA000C9417010C9417010C9417012E
:100010000C9417010C9417010C9417010C94170100
:100020000C9417010C9417010C94E1030C9419041F
:100030000C9417010C9417010C9417010C941701E0
:100040000C9417010C9417010C9417010C941701D0
:100050000C9417010C9417010C9417010C941701C0
:100060000C9417010C9417010C9417010C941701B0
:100070000C9417010C9417010C9417010C941701A0
:100080000C9417010C9417010C9417010C94170190
:100090000C9417010C9417010C9417010C94170180
:1000A0000C9417010C9417010C9417010A41766700
:1000B0002074696D65206265747765656E20707265
:1000C000657373657320696E206D696C6C69736507
:1000D000636F6E64733A20000A204176657261672F
:1000E000652074696D65206265747765656E207042
:1000F0007265737365733A20000A20426567696E02
:1001000021000A737461727420696E203220736555
:10011000636F6E6473000A696E697469616C697AF1
:1001200065642E2E2E000A2054696D6520656C6171
:100130007073656420696E20636C69636B733A2029
:100140000000010000D801120002000095014300E8
:10015000030000910104010309047D011202030957
:1001600004750106030309046B0108080334003118
:10017000003000000006034D003200000012034A68
:10018000002E0020004600690065006E006500003A
:10019000000403090409024300020100C0320904FB
:1001A00000000102020100052400100105240101E4
:1001B000010424020605240600010705820310003D
:1001C0004009040100020A00000007050302400084
:1001D0000007058402400000120100020200001026
:1001E000C0167A040001010203010001C11201805E
:1001F0003601813611241FBECFEFDAE0DEBFCDBF5E
:1002000011E0A0E0B1E0EEE2F3E102C005900D9252
:10021000A830B107D9F721E0A8E0B1E001C01D92F4
:10022000A031B207E1F70E9468060C9454090C94BF
:10023000000088E893E120E931E0F9013197F1F716
:100240000197D9F70895C59BFECF379BFECFC59A7E
:10025000809196009091970020910C0130910D01B2
:10026000821B930B90930F0180930E018091960057
:100270009091970090930D0180930C0186E291E09C
:100280000E946A0580910E0190910F010C94CF0598
:100290008091E80080FFFCCF089581E08093D70033
:1002A00080EA8093D80082E189BD09B400FEFDCFC9
:1002B00080E98093D8001092E00010920B01109218
:1002C00008018CE08093E2007894089580910B01FE
:1002D00008959FB7F89480910B01811103C09FBFCF
:1002E0008FEF089583E08093E9008091E80085FF17
:1002F000F6CF8091F1002091E80025FD03C02BE6A8
:100300002093E8009FBF08959FB7F89480910B0158
:10031000882329F083E08093E9008091F2009FBF59
:10032000089580910B01882359F08FB7F89493E0DA
:100330009093E9002BE69091E80095FD02C08FBFF5
:1003400008952093E800F7CF90910B01911102C01E
:100350008FEF08959FB7F89424E02093E90020914F
:100360000901222341F02091E80025FD02C09FBF32
:10037000EFCF109209012091E400275E34E0409114
:10038000E80045FD12C09FBF9091E400921304C0A5
:1003900081E080930901DCCF90910B019923C1F298
:1003A0009FB7F8943093E900EACF8093F1008091F1
:1003B000E80085FD03C08AE38093E80085E0809330
:1003C0000A019FBF80E0089590910B01992351F09D
:1003D0009FB7F89424E02093E9002091E80025FDE0
:1003E00003C09FBF8FEF08958093F1008091E800D4
:1003F00085FD03C08AE38093E80085E080930A01CD
:100400009FBF80E0089520910B01211102C08FEF62
:1004100008952FB7F89434E03093E9003091090142
:10042000332341F03091E80035FD02C02FBFEFCFFC
:100430001092090134E040E45AE3A5E0611571052A
:1004400019F42FBF80E00895E091E400E75EF09199
:10045000E800F5FD12C02FBF2091E4002E1304C068
:1004600081E080930901D3CF20910B01222379F2FF
:100470002FB7F8943093E900EACFE091F200B42F5F
:10048000BE1BB617170611F008F0B62FEB2FF0E0E1
:100490006E1B7F0BB13408F03FC1EA5AF64F0C9443
:1004A000D408FC0181918093F100CF01FC0181917E
:1004B0008093F100CF01FC0181918093F100CF0185
:1004C000FC0181918093F100CF01FC018191809327
:1004D000F100CF01FC0181918093F100CF01FC017B
:1004E00081918093F100CF01FC0181918093F10013
:1004F000CF01FC0181918093F100CF01FC0181913A
:100500008093F100CF01FC0181918093F100CF0134
:10051000FC0181918093F100CF01FC0181918093D6
:10052000F100CF01FC0181918093F100CF01FC012A
:1005300081918093F100CF01FC0181918093F100C2
:10054000CF01FC0181918093F100CF01FC018191E9
:100550008093F100CF01FC0181918093F100CF01E4
:10056000FC0181918093F100CF01FC018191809386
:10057000F100CF01FC0181918093F100CF01FC01DA
:1005800081918093F100CF01FC0181918093F10072
:10059000CF01FC0181918093F100CF01FC01819199
:1005A0008093F100CF01FC0181918093F100CF0194
:1005B000FC0181918093F100CF01FC018191809336
:1005C000F100CF01FC0181918093F100CF01FC018A
:1005D00081918093F100CF01FC0181918093F10022
:1005E000CF01FC0181918093F100CF01FC01819149
:1005F0008093F100CF01FC0181918093F100CF0144
:10060000FC0181918093F100CF01FC0181918093E5
:10061000F100CF01FC0181918093F100CF01FC0139
:1006200081918093F100CF01FC0181918093F100D1
:10063000CF01FC0181918093F100CF01FC018191F8
:100640008093F100CF01FC0181918093F100CF01F3
:10065000FC0181918093F100CF01FC018191809395
:10066000F100CF01FC0181918093F100CF01FC01E9
:1006700081918093F100CF01FC0181918093F10081
:10068000CF01FC0181918093F100CF01FC018191A8
:100690008093F100CF01FC0181918093F100CF01A3
:1006A000FC0181918093F100CF01FC018191809345
:1006B000F100CF01FC0181918093F100CF01FC0199
:1006C00081918093F100CF01FC0181918093F10031
:1006D000CF01FC0181918093F100CF01FC01819158
:1006E0008093F100CF01FC0181918093F100CF0153
:1006F000FC0181918093F100CF01FC0181918093F5
:10070000F100CF01FC0181918093F100CF01FC0148
:1007100081918093F100CF01FC0181918093F100E0
:10072000CF01E091E800E5FF5093E800A0930A01B3
:1007300085CE8FB7F89490910A01992341F094E007
:100740009093E9009AE39093E80010920A018FBF1A
:100750000895809104010895809105010895809184
:10076000060108958091080108959FB7F89420919B
:100770000B01211103C09FBF8FEF089522E020934A
:10078000E9003091E80035FFF6CF31EA3093F1000F
:1007900030E23093F1001092F1001092F1001092CB
:1007A000F1001092F1002093F1001092F10080937B
:1007B000F1001092F1008AE38093E8009FBF80E08F
:1007C00008951F921FB61F9211248F939F938091BB
:1007D000E1001092E10083FF11C01092E90091E066
:1007E0009093EB001092EC0092E19093ED0098E072
:1007F0009093F00010920B011092080182FF13C039
:1008000080910B01882379F080910A01882359F0A7
:10081000815080930A01811106C084E08093E90031
:100820008AE38093E8009F918F911F901FBE1F90D5
:1008300018951F920F920FB60F921124EF92FF920C
:100840000F931F932F933F934F935F936F937F93D8
:100850008F939F93AF93BF93CF93DF93EF93FF93C8
:100860001092E9008091E80083FF72C0D091F100FE
:10087000C091F100E090F1008091F100F82E00911C
:10088000F1008091F100182F8091F1009091F1001A
:1008900022EF2093E800C63009F066C021E431E081
:1008A000F90145915491E416F50609F04AC0F901A1
:1008B0003296459154910417150709F042C0F90189
:1008C000349645915491F9013696E4918F3F910504
:1008D00019F010F08FEF90E0E81708F48E2F3EEF3C
:1008E0009091E800292F2570D9F392FD13C0982F1D
:1008F000813108F090E1FA01292F21112FC0490F11
:10090000511DE82FE91B9E2F3093E800E11124C010
:10091000803110F5FF91EF91DF91CF91BF91AF91B1
:100920009F918F917F916F915F914F913F912F9107
:100930001F910F91FF90EF900F900FBE0F901F909F
:100940001895295F3F4F41E02B36340709F0A8CFB7
:1009500081E28093EB00DECF892FC2CF6491609358
:10096000F10021503196C9CFC53051F48EEF8093FC
:10097000E8000E9448018E2D80688093E300CACF72
:10098000C93069F5D111E4CFE0920B011092080152
:1009900010920A018EEF8093E80021E08AEE91E048
:1009A0002093E900AC014F5F5F4FFC01349130931D
:1009B000EB00332391F0FA0144914093EC0031961F
:1009C000E4910396E093ED002F5F253049F78EE127
:1009D0008093EA001092EA009DCFCA01F5CFC8309B
:1009E00069F4D03809F0B4CF0E94480180910B011E
:1009F0008093F1008EEF8093E8008CCFC13289F4B0
:100A0000D13A09F0A5CF0E94480180E091E0FC01B5
:100A10002191CF012093F100F1E087309F07B9F7D2
:100A2000E9CFC032B1F4D13209F092CF8091E80021
:100A300082FFFCCF80E091E02091F100FC01219346
:100A4000CF01F1E087309F07B9F78BEF8093E80083
:100A5000D1CFC23241F4D13209F07ACFE09208010D
:100A60000E944801C7CFC11112C00E944801D2386C
:100A700049F40093E900C091EB00C5FBCC27C0F915
:100A80001092E900C093F1001092F100B3CF8C2FC7
:100A90008D7F813009F05CCFD23009F059CFEF283B
:100AA00009F056CF0F778FEF800F843008F050CFCA
:100AB0008EEF8093E8000093E900C33009F448CF3B
:100AC00089E18093EB0081E090E001C0880F0A95F6
:100AD000EAF77ECF1F93CF93DF93EC01FE011491D1
:100AE000112351F01A3019F48DE00E94A401812FD6
:100AF0000E94A4012196F2CFDF91CF911F9108951A
:100B000097E38A3008F490E3890F0C94A401CF9303
:100B1000C82F82958F700E9480058C2F8F70CF9187
:100B20000C948005CF93C82F892F0E9487058C2FA6
:100B3000CF910C9487050C948705EF92FF920F9349
:100B40001F93CF93DF9300D000D000D00F92CDB78A
:100B5000DEB78E010F5F1F4F27E0F80111922A9533
:100B6000E9F74AE0B8010E94EE087E01F8E0EF0ED6
:100B7000F11CF80181918F0181110E94A4010E15D1
:100B80001F05B9F727960FB6F894DEBF0FBECDBF8D
:100B9000DF91CF911F910F91FF90EF900895EF9209
:100BA000FF920F931F93CF93DF9300D000D000D01C
:100BB000CDB7DEB78E010F5F1F4F26E0F80111920F
:100BC0002A95E9F74AE0B8010E942A097E01F6E079
:100BD000EF0EF11CF80181918F0181110E94A40197
:100BE0000E151F05B9F726960FB6F894DEBF0FBE97
:100BF000CDBFDF91CF911F910F91FF90EF9008959E
:100C0000EF92FF920F931F93CF93DF93CDB7DEB791
:100C10002B970FB6F894DEBF0FBECDBF8E010F5FCE
:100C20001F4F2BE0F80111922A95E9F72AE0A8015D
:100C30000E94F9087E01FCE0EF0EF11CF8018191A1
:100C40008F0181110E94A4010E151F05B9F72B9683
:100C50000FB6F894DEBF0FBECDBFDF91CF911F91CD
:100C60000F91FF90EF900895EF92FF920F931F93D3
:100C7000CF93DF93CDB7DEB72B970FB6F894DEBFD7
:100C80000FBECDBF8E010F5F1F4F2BE0F8011192F9
:100C90002A95E9F72AE0A8010E9408097E01FBE0F5
:100CA000EF0EF11CF80181918F0181110E94A401C6
:100CB0000E151F05B9F72B960FB6F894DEBF0FBEC1
:100CC000CDBFDF91CF911F910F91FF90EF900895CD
:100CD000CDB7DEB72A970FB6F894DEBF0FBECDBFF3
:100CE00080E880936100109261000E944D0188E8C5
:100CF00093E120E931E0F9013197F1F70197D9F754
:100D000086E191E00E946A05529A3F985A9A479A62
:100D1000809191008F7E8093910080919100877FD8
:100D200080939100809191008D7F809391008091BC
:100D300091008E7F809391008091910084608093D8
:100D40009100809191008D7F80939100809191001E
:100D5000816080939100C59A809191008F7B8093F0
:100D6000910080E197E220E931E0F9013197F1F754
:100D70000197D9F782E091E00E946A0588E99AE339
:100D800020E931E0F9013197F1F70197D9F789EFBF
:100D900090E00E946A0510929500109294008E01D6
:100DA0000F5F1F4F7E018BE0E80EF11C0E942301B4
:100DB00080910E0190910F01F801819391938F0121
:100DC000EE15FF0599F789819A812B813C81820F6D
:100DD000931F2D813E81820F931F2F813885820FB3
:100DE000931F29853A85820F931F65E070E00E946A
:100DF000C0088B0188ED90E00E946A05C8010E943E
:100E0000CF058CEA90E00E946A05B801110F880BAB
:100E1000990B0E94C70720E034E244E756E40E94A1
:100E20001D0720E030E04AE754E40E9453080E9486
:100E30008F07CB010E94CF05FFCF0E9431070C9492
:100E400019080E94120858F00E940B0840F029F47B
:100E50005F3F29F00C94020851110C944D080C943A
:100E600008080E942A0868F39923B1F3552391F3E7
:100E7000951B550BBB27AA2762177307840738F009
:100E80009F5F5F4F220F331F441FAA1FA9F335D066
:100E90000E2E3AF0E0E832D091505040E695001C1A
:100EA000CAF72BD0FE2F29D0660F771F881FBB1FD4
:100EB000261737074807AB07B0E809F0BB0B802DB2
:100EC000BF01FF2793585F4F3AF09E3F510578F0DE
:100ED0000C9402080C944D085F3FE4F3983ED4F361
:100EE000869577956795B795F7959F5FC9F7880FB2
:100EF000911D9695879597F90895E1E0660F771F04
:100F0000881FBB1F621773078407BA0720F0621B94
:100F1000730B840BBA0BEE1F88F7E09508950E94BF
:100F200096076894B1110C944D0808950E943208F8
:100F300088F09F5798F0B92F9927B751B0F0E1F09A
:100F4000660F771F881F991F1AF0BA95C9F714C04A
:100F5000B13091F00E944C08B1E008950C944C0817
:100F6000672F782F8827B85F39F0B93FCCF3869583
:100F700077956795B395D9F73EF4909580957095E0
:100F800061957F4F8F4F9F4F0895E89409C097FB5D
:100F90003EF490958095709561957F4F8F4F9F4F50
:100FA0009923A9F0F92F96E9BB279395F695879594
:100FB00077956795B795F111F8CFFAF4BB0F11F457
:100FC00060FF1BC06F5F7F4F8F4F9F4F16C08823FE
:100FD00011F096E911C0772321F09EE8872F762F34
:100FE00005C0662371F096E8862F70E060E02AF075
:100FF0009A95660F771F881FDAF7880F9695879561
:1010000097F9089597F99F6780E870E060E0089588
:101010009FEF80EC089500240A9416161706180610
:101020000906089500240A941216130614060506EC
:101030000895092E0394000C11F4882352F0BB0F7D
:1010400040F4BF2B11F460FF04C06F5F7F4F8F4FE0
:101050009F4F089557FD9058440F551F59F05F3F1B
:1010600071F04795880F97FB991F61F09F3F79F0CA
:1010700087950895121613061406551FF2CF46954C
:10108000F1DF08C0161617061806991FF1CF8695CE
:101090007105610508940895E894BB2766277727B2
:1010A000CB0197F908950E9466080C9419080E94D4
:1010B0000B0838F00E94120820F0952311F00C94D0
:1010C00002080C94080811240C944D080E942A0868
:1010D00070F3959FC1F3950F50E0551F629FF0018B
:1010E000729FBB27F00DB11D639FAA27F00DB11DA4
:1010F000AA1F649F6627B00DA11D661F829F22272D
:10110000B00DA11D621F739FB00DA11D621F839FB3
:10111000A00D611D221F749F3327A00D611D231F89
:10112000849F600D211D822F762F6A2F11249F57D7
:1011300050409AF0F1F088234AF0EE0FFF1FBB1FDA
:10114000661F771F881F91505040A9F79E3F510599
:1011500080F00C9402080C944D085F3FE4F3983E35
:10116000D4F3869577956795B795F795E7959F5F43
:10117000C1F7FE2B880F911D9695879597F90895D5
:1011800097FB072E16F4009407D077FD09D00E9434
:10119000DA0807FC05D03EF4909581959F4F08959D
:1011A000709561957F4F0895EE0FFF1F0590F491A4
:1011B000E02D0994AA1BBB1B51E107C0AA1FBB1F4E
:1011C000A617B70710F0A61BB70B881F991F5A95D3
:1011D000A9F780959095BC01CD010895BB274A30B1
:1011E00031F4992322F4BDE2909581959F4F0C94A0
:1011F0002B09BB272A3051F4992342F4BDE2909584
:101200008095709561957F4F8F4F9F4F0C94090982
:10121000BB27FA01A62F6217710581059105330BD3
:1012200030FB66F0AA27660F771F881F991FAA1F39
:10123000A21710F0A21B63953850A9F7A05DAA333E
:1012400008F0A95DA19336F7B111B1931082CA01DC
:101250000C944409BB27FB015527AA27880F991F27
:10126000AA1FA41710F0A41B83955051B9F7A05DD5
:10127000AA3308F0A95DA193009779F7B111B19352
:101280001192CB010C944409DC01FC01672F719190
:101290007723E1F7329704C07C916D93708362915C
:1012A000AE17BF07C8F30895F894FFCF91038C03DE
:1012B000870382037D03780373036E03690364036A
:1012C0005F035A03550350034B03460341033C039A
:1012D000370332032D03280323031E0319031403CA
:1012E0000F030A0305030003FB02F602F102EC02FE
:1012F000E702E202DD02D802D302CE02C902C40232
:10130000BF02BA02B502B002AB02A602A1029C0261
:10131000970292028D02880283027E027902740291
:0E1320006F026A02650260025B025602510211
:08132E0000E1000000000800CE
:00000001FF
