:100000000C94D0000C94ED000C94ED000C94ED00D9
:100010000C94ED000C94ED000C94ED000C94ED00AC
:100020000C94ED000C94ED000C941F040C945704F8
:100030000C94ED000C94ED000C94ED000C94ED008C
:100040000C94ED000C94ED000C94ED000C94ED007C
:100050000C94ED000C94ED000C94ED000C94ED006C
:100060000C94ED000C94ED000C94ED000C94ED005C
:100070000C94ED000C94ED000C94ED000C94ED004C
:100080000C94ED000C94ED000C94ED000C94ED003C
:100090000C94ED000C94ED000C94ED000C94ED002C
:1000A0000C94ED000C94ED000C94ED00206F757431
:1000B000707574203D20002041444332203D2000D3
:1000C000206F7574707574203D200020416E676C40
:1000D0006531203D2000200D41444331203D20006A
:1000E0000A696E697469616C697A6564000001006F
:1000F0000084011200020000410143000300003DA2
:100100000104010309042901120203090421010663
:10011000030309041701080803340031003000000C
:100120000006034D003200000012034A002E00209A
:10013000004600690065006E0065000000040309C8
:100140000409024300020100C03209040000010258
:10015000020100052400100105240101010424020C
:10016000060524060001070582031000400904016A
:1001700000020A0000000705030240000007058492
:10018000024000001201000202000010C0167A04B2
:100190000001010203010001C11201803601813614
:1001A00011241FBECFEFDAE0DEBFCDBF11E0A0E02B
:1001B000B1E0EAEBF4E102C005900D92A830B1077E
:1001C000D9F721E0A8E0B1E001C01D92A431B20747
:1001D000E1F70E94A6060C941A0A0C940000E4E1D0
:1001E000F1E09C01217033273293229396958795F5
:1001F00021E0EC30F207A9F708950E94EF0080910A
:100200000C0190910D01019739F580917B0080627E
:1002100080937B0080910E0190910F01019701F571
:1002200080917C00846080937C008091100190918B
:1002300011010197C9F480917C00826080937C0059
:100240008091120190911301019791F480917C00AB
:10025000816080937C00089580917B008F7DD8CF52
:1002600080917C008B7FDFCF80917C008D7FE6CFFB
:1002700080917C008E7FEDCF8830910560F4909165
:100280007E0021E030E001C0220F8A95EAF7922B30
:1002900090937E00089520917D00089741E050E002
:1002A00001C0440F8A95EAF7242B20937D0008951E
:1002B000259A269AA1E8B0E08C9180618C938C916C
:1002C00088608C93E0E8F0E08081826080838081A8
:1002D0008E7F80838C918B7F8C938C9182608C93AA
:1002E0008C918E7F8C9380818068808380818F7BCE
:1002F000808380818062808380818F7E808380E4A0
:100300009CE9909387008093860008958091E8008F
:1003100080FFFCCF089581E08093D70080EA80932E
:10032000D80082E189BD09B400FEFDCF80E9809349
:10033000D8001092E00010920B01109208018CE09E
:100340008093E2007894089580910B0108959FB7FF
:10035000F89480910B01811103C09FBF8FEF089526
:1003600083E08093E9008091E80085FFF6CF8091DB
:10037000F1002091E80025FD03C02BE62093E80062
:100380009FBF08959FB7F89480910B01882329F0AF
:1003900083E08093E9008091F2009FBF08958091EF
:1003A0000B01882359F08FB7F89493E09093E900FC
:1003B0002BE69091E80095FD02C08FBF0895209331
:1003C000E800F7CF90910B01911102C08FEF0895D3
:1003D0009FB7F89424E02093E9002091090122239B
:1003E00041F02091E80025FD02C09FBFEFCF1092A1
:1003F00009012091E400275E34E04091E80045FDCA
:1004000012C09FBF9091E400921304C081E08093DA
:100410000901DCCF90910B019923C1F29FB7F894A9
:100420003093E900EACF8093F1008091E80085FDE8
:1004300003C08AE38093E80085E080930A019FBFB0
:1004400080E0089590910B01992351F09FB7F894A3
:1004500024E02093E9002091E80025FD03C09FBF20
:100460008FEF08958093F1008091E80085FD03C02F
:100470008AE38093E80085E080930A019FBF80E0D3
:10048000089520910B01211102C08FEF08952FB71D
:10049000F89434E03093E90030910901332341F0BE
:1004A0003091E80035FD02C02FBFEFCF1092090157
:1004B00034E040E45AE3A5E06115710519F42FBF5B
:1004C00080E00895E091E400E75EF091E800F5FD3A
:1004D00012C02FBF2091E4002E1304C081E080934E
:1004E0000901D3CF20910B01222379F22FB7F89481
:1004F0003093E900EACFE091F200B42FBE1BB617AB
:10050000170611F008F0B62FEB2FF0E06E1B7F0BF3
:10051000B13408F03FC1E45EF54F0C94AE09FC0124
:1005200081918093F100CF01FC0181918093F100D2
:10053000CF01FC0181918093F100CF01FC018191F9
:100540008093F100CF01FC0181918093F100CF01F4
:10055000FC0181918093F100CF01FC018191809396
:10056000F100CF01FC0181918093F100CF01FC01EA
:1005700081918093F100CF01FC0181918093F10082
:10058000CF01FC0181918093F100CF01FC018191A9
:100590008093F100CF01FC0181918093F100CF01A4
:1005A000FC0181918093F100CF01FC018191809346
:1005B000F100CF01FC0181918093F100CF01FC019A
:1005C00081918093F100CF01FC0181918093F10032
:1005D000CF01FC0181918093F100CF01FC01819159
:1005E0008093F100CF01FC0181918093F100CF0154
:1005F000FC0181918093F100CF01FC0181918093F6
:10060000F100CF01FC0181918093F100CF01FC0149
:1006100081918093F100CF01FC0181918093F100E1
:10062000CF01FC0181918093F100CF01FC01819108
:100630008093F100CF01FC0181918093F100CF0103
:10064000FC0181918093F100CF01FC0181918093A5
:10065000F100CF01FC0181918093F100CF01FC01F9
:1006600081918093F100CF01FC0181918093F10091
:10067000CF01FC0181918093F100CF01FC018191B8
:100680008093F100CF01FC0181918093F100CF01B3
:10069000FC0181918093F100CF01FC018191809355
:1006A000F100CF01FC0181918093F100CF01FC01A9
:1006B00081918093F100CF01FC0181918093F10041
:1006C000CF01FC0181918093F100CF01FC01819168
:1006D0008093F100CF01FC0181918093F100CF0163
:1006E000FC0181918093F100CF01FC018191809305
:1006F000F100CF01FC0181918093F100CF01FC0159
:1007000081918093F100CF01FC0181918093F100F0
:10071000CF01FC0181918093F100CF01FC01819117
:100720008093F100CF01FC0181918093F100CF0112
:10073000FC0181918093F100CF01FC0181918093B4
:10074000F100CF01FC0181918093F100CF01FC0108
:1007500081918093F100CF01FC0181918093F100A0
:10076000CF01FC0181918093F100CF01FC018191C7
:100770008093F100CF01FC0181918093F100CF01C2
:10078000FC0181918093F100CF01FC018191809364
:10079000F100CF01FC0181918093F100CF01E09144
:1007A000E800E5FF5093E800A0930A0185CE8FB7DB
:1007B000F89490910A01992341F094E09093E90014
:1007C0009AE39093E80010920A018FBF08958091F8
:1007D000040108958091050108958091060108950E
:1007E0008091080108959FB7F89420910B01211181
:1007F00003C09FBF8FEF089522E02093E90030915E
:10080000E80035FFF6CF31EA3093F10030E2309363
:10081000F1001092F1001092F1001092F10010928C
:10082000F1002093F1001092F1008093F1001092FA
:10083000F1008AE38093E8009FBF80E008951F9253
:100840001FB61F9211248F939F938091E100109205
:10085000E10083FF11C01092E90091E09093EB005A
:100860001092EC0092E19093ED0098E09093F000EC
:1008700010920B011092080182FF13C080910B01AE
:10088000882379F080910A01882359F08150809360
:100890000A01811106C084E08093E9008AE3809315
:1008A000E8009F918F911F901FBE1F9018951F9277
:1008B0000F920FB60F921124EF92FF920F931F9396
:1008C0002F933F934F935F936F937F938F939F9358
:1008D000AF93BF93CF93DF93EF93FF931092E90011
:1008E0008091E80083FF72C0D091F100C091F100C7
:1008F000E090F1008091F100F82E0091F1008091DC
:10090000F100182F8091F1009091F10022EF2093D7
:10091000E800C63009F066C02DEE30E0F9014591DF
:100920005491E416F50609F04AC0F9013296459152
:1009300054910417150709F042C0F9013496459106
:100940005491F9013696E4918F3F910519F010F01A
:100950008FEF90E0E81708F48E2F3EEF9091E800BB
:10096000292F2570D9F392FD13C0982F813108F0FB
:1009700090E1FA01292F21112FC0490F511DE82FB5
:10098000E91B9E2F3093E800E11124C0803110F55F
:10099000FF91EF91DF91CF91BF91AF919F918F9197
:1009A0007F916F915F914F913F912F911F910F9187
:1009B000FF90EF900F900FBE0F901F901895295F3A
:1009C0003F4F41E02731340709F0A8CF81E28093FF
:1009D000EB00DECF892FC2CF64916093F1002150EC
:1009E0003196C9CFC53051F48EEF8093E8000E9454
:1009F00086018E2D80688093E300CACFC93069F5E7
:100A0000D111E4CFE0920B011092080110920A017B
:100A10008EEF8093E80021E086E991E02093E900E1
:100A2000AC014F5F5F4FFC0134913093EB003323F7
:100A300091F0FA0144914093EC003196E4910396D1
:100A4000E093ED002F5F253049F78EE18093EA00B7
:100A50001092EA009DCFCA01F5CFC83069F4D038B2
:100A600009F0B4CF0E94860180910B018093F100C0
:100A70008EEF8093E8008CCFC13289F4D13A09F02F
:100A8000A5CF0E94860180E091E0FC012191CF0179
:100A90002093F100F1E087309F07B9F7E9CFC0322A
:100AA000B1F4D13209F092CF8091E80082FFFCCFFF
:100AB00080E091E02091F100FC012193CF01F1E071
:100AC00087309F07B9F78BEF8093E800D1CFC23210
:100AD00041F4D13209F07ACFE09208010E948601F8
:100AE000C7CFC11112C00E948601D23849F40093C9
:100AF000E900C091EB00C5FBCC27C0F91092E900DA
:100B0000C093F1001092F100B3CF8C2F8D7F813014
:100B100009F05CCFD23009F059CFEF2809F056CF59
:100B20000F778FEF800F843008F050CF8EEF8093D7
:100B3000E8000093E900C33009F448CF89E18093CD
:100B4000EB0081E090E001C0880F0A95EAF77ECFC4
:100B50001F93CF93DF93EC01FE011491112351F009
:100B60001A3019F48DE00E94E201812F0E94E20107
:100B70002196F2CFDF91CF911F91089597E38A30AC
:100B800008F490E3890F0C94E201CF93C82F82956B
:100B90008F700E94BE058C2F8F70CF910C94BE0574
:100BA000CF93C82F892F0E94C5058C2FCF910C940D
:100BB000C5050C94C505EF92FF920F931F93CF9339
:100BC000DF9300D000D000D00F92CDB7DEB78E01FA
:100BD0000F5F1F4F27E0F80111922A95E9F74AE0CD
:100BE000B8010E94B4097E01F8E0EF0EF11CF80193
:100BF00081918F0181110E94E2010E151F05B9F745
:100C000027960FB6F894DEBF0FBECDBFDF91CF9110
:100C10001F910F91FF90EF900895EF92FF920F9325
:100C20001F93CF93DF9300D000D000D0CDB7DEB7B5
:100C30008E010F5F1F4F26E0F80111922A95E9F708
:100C40004AE0B8010E94F0097E01F6E0EF0EF11CC7
:100C5000F80181918F0181110E94E2010E151F059B
:100C6000B9F726960FB6F894DEBF0FBECDBFDF9161
:100C7000CF911F910F91FF90EF900895EF92FF9207
:100C80000F931F93CF93DF93CDB7DEB72B970FB69C
:100C9000F894DEBF0FBECDBF8E010F5F1F4F2BE05C
:100CA000F80111922A95E9F72AE0A8010E94BF09EC
:100CB0007E01FCE0EF0EF11CF80181918F018111A2
:100CC0000E94E2010E151F05B9F72B960FB6F89496
:100CD000DEBF0FBECDBFDF91CF911F910F91FF906F
:100CE000EF900895EF92FF920F931F93CF93DF93AE
:100CF000CDB7DEB72B970FB6F894DEBF0FBECDBFD2
:100D00008E010F5F1F4F2BE0F80111922A95E9F732
:100D10002AE0A8010E94CE097E01FBE0EF0EF11C43
:100D2000F80181918F0181110E94E2010E151F05CA
:100D3000B9F72B960FB6F894DEBF0FBECDBFDF918B
:100D4000CF911F910F91FF90EF90089580E88093CD
:100D50006100109261000E948B0180EE90E00E9481
:100D6000A80584E090E00E943C0181E090E00E94B0
:100D70003C0180917C00806480937C0080917C00A9
:100D80008F7780937C0080917A00846080937A00D2
:100D900080917A00826080937A0080917A008160ED
:100DA00080937A008091910084608093910080917B
:100DB00091008D7F8093910080919100816080935C
:100DC00091000E94580184E090E00E94FD00809113
:100DD0007A00806880937A0080917A0080648093A2
:100DE0007A00C4E0D0E080917A0084FFFCCF80914B
:100DF0007A00806180937A00C430D10509F062C026
:100E000086ED90E00E94A80580917800909179008D
:100E10000E940D068BEC90E00E94A805609178007E
:100E20007091790090E080E00E94B30820E030E00B
:100E300040E253E40E949E0720E030E04AE253E49F
:100E40000E940B0820E030E04FEA54E40E94410980
:100E500020E030E04AEF54E40E949F070E947D08A2
:100E6000709389006093880080EC90E00E94A80550
:100E700080918800909189000E940D068AE00E946E
:100E8000E2018DE00E94E20180917800909179006A
:100E90000E940D0680917A008F7780937A002197C7
:100EA00009F449C0C1E0D0E0CE010E94FD0080916C
:100EB0007A00806880937A0080917A0080648093C1
:100EC0007A0091CF87EB90E00E94A805809178008E
:100ED000909179000E940D066091780070917900E0
:100EE00090E080E00E94B30820E030E040E253E46C
:100EF0000E949E0720E030E04AE253E40E940B0883
:100F000020E030E04FEA54E40E94410920E030E064
:100F10004AEF54E40E949F070E947D0870938B0063
:100F200060938A008CEA90E00E94A80580918A0074
:100F300090918B00A1CFC4E0D0E0B6CF5058BB2732
:100F4000AA270E94B6070C9407090E94F90838F0F6
:100F50000E94000920F039F49F3F19F426F40C9404
:100F6000F6080EF4E095E7FB0C94F008E92F0E94D8
:100F7000180958F3BA17620773078407950720F01A
:100F800079F4A6F50C943A090EF4E0950B2EBA2FDD
:100F9000A02D0B01B90190010C01CA01A00111247F
:100FA000FF27591B99F0593F50F4503E68F11A162B
:100FB000F040A22F232F342F4427585FF3CF4695BC
:100FC00037952795A795F0405395C9F77EF41F16DE
:100FD000BA0B620B730B840BBAF09150A1F0FF0FA8
:100FE000BB1F661F771F881FC2F70EC0BA0F621F94
:100FF000731F841F48F4879577956795B795F79584
:101000009E3F08F0B0CF9395880F08F09927EE0F18
:101010009795879508950E941F080C9407090E94D0
:10102000000958F00E94F90840F029F45F3F29F0C8
:101030000C94F00851110C943B090C94F6080E9492
:10104000180968F39923B1F3552391F3951B550BB8
:10105000BB27AA2762177307840738F09F5F5F4F8B
:10106000220F331F441FAA1FA9F335D00E2E3AF0CA
:10107000E0E832D091505040E695001CCAF72BD0E2
:10108000FE2F29D0660F771F881FBB1F2617370733
:101090004807AB07B0E809F0BB0B802DBF01FF2765
:1010A00093585F4F3AF09E3F510578F00C94F0084A
:1010B0000C943B095F3FE4F3983ED4F38695779513
:1010C0006795B795F7959F5FC9F7880F911D96951E
:1010D000879597F90895E1E0660F771F881FBB1F7A
:1010E000621773078407BA0720F0621B730B840B27
:1010F000BA0BEE1F88F7E09508950E948408689463
:10110000B1110C943B0908950E94200988F09F5763
:1011100098F0B92F9927B751B0F0E1F0660F771F1B
:10112000881F991F1AF0BA95C9F714C0B13091F011
:101130000E943A09B1E008950C943A09672F782F7C
:101140008827B85F39F0B93FCCF3869577956795D6
:10115000B395D9F73EF490958095709561957F4F42
:101160008F4F9F4F0895E89409C097FB3EF49095E8
:101170008095709561957F4F8F4F9F4F9923A9F070
:10118000F92F96E9BB279395F695879577956795FF
:10119000B795F111F8CFFAF4BB0F11F460FF1BC043
:1011A0006F5F7F4F8F4F9F4F16C0882311F096E9D6
:1011B00011C0772321F09EE8872F762F05C0662384
:1011C00071F096E8862F70E060E02AF09A95660F3D
:1011D000771F881FDAF7880F9695879597F90895F6
:1011E00097F99F6780E870E060E008959FEF80ECDA
:1011F000089500240A94161617061806090608957D
:1012000000240A9412161306140605060895092EE2
:101210000394000C11F4882352F0BB0F40F4BF2B51
:1012200011F460FF04C06F5F7F4F8F4F9F4F089591
:1012300057FD9058440F551F59F05F3F71F0479587
:10124000880F97FB991F61F09F3F79F0879508956C
:10125000121613061406551FF2CF4695F1DF08C08B
:10126000161617061806991FF1CF869571056105A8
:1012700008940895E894BB2766277727CB0197F950
:1012800008950E9454090C9407090E94F90838F047
:101290000E94000920F0952311F00C94F0080C94A2
:1012A000F60811240C943B090E94180970F3959FCD
:1012B000C1F3950F50E0551F629FF001729FBB274D
:1012C000F00DB11D639FAA27F00DB11DAA1F649FE9
:1012D0006627B00DA11D661F829F2227B00DA11D9C
:1012E000621F739FB00DA11D621F839FA00D611D22
:1012F000221F749F3327A00D611D231F849F600D43
:10130000211D822F762F6A2F11249F5750409AF06B
:10131000F1F088234AF0EE0FFF1FBB1F661F771FF7
:10132000881F91505040A9F79E3F510580F00C94C2
:10133000F0080C943B095F3FE4F3983ED4F38695A4
:1013400077956795B795F795E7959F5FC1F7FE2B62
:10135000880F911D9695879597F90895EE0FFF1FB9
:101360000590F491E02D0994BB274A3031F499237C
:1013700022F4BDE2909581959F4F0C94F109BB2713
:101380002A3051F4992342F4BDE2909580957095EE
:1013900061957F4F8F4F9F4F0C94CF09BB27FA0168
:1013A000A62F6217710581059105330B30FB66F09E
:1013B000AA27660F771F881F991FAA1FA21710F070
:1013C000A21B63953850A9F7A05DAA3308F0A95D68
:1013D000A19336F7B111B1931082CA010C940A0A95
:1013E000BB27FB015527AA27880F991FAA1FA417FF
:1013F00010F0A41B83955051B9F7A05DAA3308F0F3
:10140000A95DA193009779F7B111B1931192CB0126
:101410000C940A0ADC01FC01672F71917723E1F734
:10142000329704C07C916D9370836291AE17BF07B1
:10143000C8F30895F894FFCFCF03CA03C503C003D0
:10144000BB03B603B103AC03A703A2039D03980338
:1014500093038E03890384037F037A037503700368
:101460006B03660361035C03570352034D03480398
:1014700043033E03390334032F032A0325032003C8
:101480001B03160311030C0307030203FD02F802FA
:10149000F302EE02E902E402DF02DA02D502D00230
:1014A000CB02C602C102BC02B702B202AD02A80260
:0A14B000A3029E02990294028F022B
:0814BA0000E100000000080041
:00000001FF
