:100000000C94C0000C94DD000C94DD000C94DD0019
:100010000C94DD000C94DD000C94DD000C94DD00EC
:100020000C94DD000C94DD000C94E1030C94190495
:100030000C94DD000C94DD000C94DD000C94DD00CC
:100040000C94DD000C94DD000C94DD000C94DD00BC
:100050000C94DD000C94DD000C94DD000C94DD00AC
:100060000C94DD000C94DD000C94DD000C94DD009C
:100070000C94DD000C94DD000C94DD000C94DD008C
:100080000C94DD000C94DD000C94DD000C94DD007C
:100090000C94DD000C94DD000C94DD000C94DD006C
:1000A0000C94DD000C94DD000C94DD0020414443F1
:1000B00032203D2000200D41444331203D20000AE4
:1000C000696E697469616C697A6564000001000099
:1000D00063011200020000200143000300001C0124
:1000E00004010309040801120203090400010603C4
:1000F000030904F600080803340031003000000052
:1001000006034D003200000012034A002E002000BA
:100110004600690065006E006500000004030904E4
:1001200009024300020100C032090400000102027A
:100130000100052400100105240101010424020628
:100140000524060001070582031000400904010090
:10015000020A0000000705030240000007058402B0
:100160004000001201000202000010C0167A0400D4
:1001700001010203010001C1120180360181360034
:1001800011241FBECFEFDAE0DEBFCDBF11E0A0E04B
:10019000B1E0EAE0FFE002C005900D92A830B1079F
:1001A000D9F721E0A8E0B1E001C01D92A431B20767
:1001B000E1F70E9468060C9442070C940000E4E109
:1001C000F1E09C0121703327329322939695879515
:1001D00021E0EC30F207A9F708950E94DF0080913A
:1001E0000C0190910D01019739F580917B0080629F
:1001F00080937B0080910E0190910F01019701F592
:1002000080917C00846080937C00809110019091AB
:1002100011010197C9F480917C00826080937C0079
:100220008091120190911301019791F480917C00CB
:10023000816080937C00089580917B008F7DD8CF72
:1002400080917C008B7FDFCF80917C008D7FE6CF1B
:1002500080917C008E7FEDCF8830910560F4909185
:100260007E0021E030E001C0220F8A95EAF7922B50
:1002700090937E00089520917D00089741E050E022
:1002800001C0440F8A95EAF7242B20937D0008953E
:100290008091E80080FFFCCF089581E08093D70033
:1002A00080EA8093D80082E189BD09B400FEFDCFC9
:1002B00080E98093D8001092E00010920B01109218
:1002C00008018CE08093E2007894089580910B01FE
:1002D00008959FB7F89480910B01811103C09FBFCF
:1002E0008FEF089583E08093E9008091E80085FF17
:1002F000F6CF8091F1002091E80025FD03C02BE6A8
:100300002093E8009FBF08959FB7F89480910B0158
:10031000882329F083E08093E9008091F2009FBF59
:10032000089580910B01882359F08FB7F89493E0DA
:100330009093E9002BE69091E80095FD02C08FBFF5
:1003400008952093E800F7CF90910B01911102C01E
:100350008FEF08959FB7F89424E02093E90020914F
:100360000901222341F02091E80025FD02C09FBF32
:10037000EFCF109209012091E400275E34E0409114
:10038000E80045FD12C09FBF9091E400921304C0A5
:1003900081E080930901DCCF90910B019923C1F298
:1003A0009FB7F8943093E900EACF8093F1008091F1
:1003B000E80085FD03C08AE38093E80085E0809330
:1003C0000A019FBF80E0089590910B01992351F09D
:1003D0009FB7F89424E02093E9002091E80025FDE0
:1003E00003C09FBF8FEF08958093F1008091E800D4
:1003F00085FD03C08AE38093E80085E080930A01CD
:100400009FBF80E0089520910B01211102C08FEF62
:1004100008952FB7F89434E03093E9003091090142
:10042000332341F03091E80035FD02C02FBFEFCFFC
:100430001092090134E040E45AE3A5E0611571052A
:1004400019F42FBF80E00895E091E400E75EF09199
:10045000E800F5FD12C02FBF2091E4002E1304C068
:1004600081E080930901D3CF20910B01222379F2FF
:100470002FB7F8943093E900EACFE091F200B42F5F
:10048000BE1BB617170611F008F0B62FEB2FF0E0E1
:100490006E1B7F0BB13408F03FC1EC5BF84F0C943E
:1004A000D606FC0181918093F100CF01FC0181917E
:1004B0008093F100CF01FC0181918093F100CF0185
:1004C000FC0181918093F100CF01FC018191809327
:1004D000F100CF01FC0181918093F100CF01FC017B
:1004E00081918093F100CF01FC0181918093F10013
:1004F000CF01FC0181918093F100CF01FC0181913A
:100500008093F100CF01FC0181918093F100CF0134
:10051000FC0181918093F100CF01FC0181918093D6
:10052000F100CF01FC0181918093F100CF01FC012A
:1005300081918093F100CF01FC0181918093F100C2
:10054000CF01FC0181918093F100CF01FC018191E9
:100550008093F100CF01FC0181918093F100CF01E4
:10056000FC0181918093F100CF01FC018191809386
:10057000F100CF01FC0181918093F100CF01FC01DA
:1005800081918093F100CF01FC0181918093F10072
:10059000CF01FC0181918093F100CF01FC01819199
:1005A0008093F100CF01FC0181918093F100CF0194
:1005B000FC0181918093F100CF01FC018191809336
:1005C000F100CF01FC0181918093F100CF01FC018A
:1005D00081918093F100CF01FC0181918093F10022
:1005E000CF01FC0181918093F100CF01FC01819149
:1005F0008093F100CF01FC0181918093F100CF0144
:10060000FC0181918093F100CF01FC0181918093E5
:10061000F100CF01FC0181918093F100CF01FC0139
:1006200081918093F100CF01FC0181918093F100D1
:10063000CF01FC0181918093F100CF01FC018191F8
:100640008093F100CF01FC0181918093F100CF01F3
:10065000FC0181918093F100CF01FC018191809395
:10066000F100CF01FC0181918093F100CF01FC01E9
:1006700081918093F100CF01FC0181918093F10081
:10068000CF01FC0181918093F100CF01FC018191A8
:100690008093F100CF01FC0181918093F100CF01A3
:1006A000FC0181918093F100CF01FC018191809345
:1006B000F100CF01FC0181918093F100CF01FC0199
:1006C00081918093F100CF01FC0181918093F10031
:1006D000CF01FC0181918093F100CF01FC01819158
:1006E0008093F100CF01FC0181918093F100CF0153
:1006F000FC0181918093F100CF01FC0181918093F5
:10070000F100CF01FC0181918093F100CF01FC0148
:1007100081918093F100CF01FC0181918093F100E0
:10072000CF01E091E800E5FF5093E800A0930A01B3
:1007300085CE8FB7F89490910A01992341F094E007
:100740009093E9009AE39093E80010920A018FBF1A
:100750000895809104010895809105010895809184
:10076000060108958091080108959FB7F89420919B
:100770000B01211103C09FBF8FEF089522E020934A
:10078000E9003091E80035FFF6CF31EA3093F1000F
:1007900030E23093F1001092F1001092F1001092CB
:1007A000F1001092F1002093F1001092F10080937B
:1007B000F1001092F1008AE38093E8009FBF80E08F
:1007C00008951F921FB61F9211248F939F938091BB
:1007D000E1001092E10083FF11C01092E90091E066
:1007E0009093EB001092EC0092E19093ED0098E072
:1007F0009093F00010920B011092080182FF13C039
:1008000080910B01882379F080910A01882359F0A7
:10081000815080930A01811106C084E08093E90031
:100820008AE38093E8009F918F911F901FBE1F90D5
:1008300018951F920F920FB60F921124EF92FF920C
:100840000F931F932F933F934F935F936F937F93D8
:100850008F939F93AF93BF93CF93DF93EF93FF93C8
:100860001092E9008091E80083FF72C0D091F100FE
:10087000C091F100E090F1008091F100F82E00911C
:10088000F1008091F100182F8091F1009091F1001A
:1008900022EF2093E800C63009F066C02CEC30E06F
:1008A000F90145915491E416F50609F04AC0F901A1
:1008B0003296459154910417150709F042C0F90189
:1008C000349645915491F9013696E4918F3F910504
:1008D00019F010F08FEF90E0E81708F48E2F3EEF3C
:1008E0009091E800292F2570D9F392FD13C0982F1D
:1008F000813108F090E1FA01292F21112FC0490F11
:10090000511DE82FE91B9E2F3093E800E11124C010
:10091000803110F5FF91EF91DF91CF91BF91AF91B1
:100920009F918F917F916F915F914F913F912F9107
:100930001F910F91FF90EF900F900FBE0F901F909F
:100940001895295F3F4F40E0263F340709F0A8CFB4
:1009500081E28093EB00DECF892FC2CF6491609358
:10096000F10021503196C9CFC53051F48EEF8093FC
:10097000E8000E9448018E2D80688093E300CACF72
:10098000C93069F5D111E4CFE0920B011092080152
:1009900010920A018EEF8093E80021E085E791E054
:1009A0002093E900AC014F5F5F4FFC01349130931D
:1009B000EB00332391F0FA0144914093EC0031961F
:1009C000E4910396E093ED002F5F253049F78EE127
:1009D0008093EA001092EA009DCFCA01F5CFC8309B
:1009E00069F4D03809F0B4CF0E94480180910B011E
:1009F0008093F1008EEF8093E8008CCFC13289F4B0
:100A0000D13A09F0A5CF0E94480180E091E0FC01B5
:100A10002191CF012093F100F1E087309F07B9F7D2
:100A2000E9CFC032B1F4D13209F092CF8091E80021
:100A300082FFFCCF80E091E02091F100FC01219346
:100A4000CF01F1E087309F07B9F78BEF8093E80083
:100A5000D1CFC23241F4D13209F07ACFE09208010D
:100A60000E944801C7CFC11112C00E944801D2386C
:100A700049F40093E900C091EB00C5FBCC27C0F915
:100A80001092E900C093F1001092F100B3CF8C2FC7
:100A90008D7F813009F05CCFD23009F059CFEF283B
:100AA00009F056CF0F778FEF800F843008F050CFCA
:100AB0008EEF8093E8000093E900C33009F448CF3B
:100AC00089E18093EB0081E090E001C0880F0A95F6
:100AD000EAF77ECF1F93CF93DF93EC01FE011491D1
:100AE000112351F01A3019F48DE00E94A401812FD6
:100AF0000E94A4012196F2CFDF91CF911F9108951A
:100B000097E38A3008F490E3890F0C94A401CF9303
:100B1000C82F82958F700E9480058C2F8F70CF9187
:100B20000C948005CF93C82F892F0E9487058C2FA6
:100B3000CF910C9487050C948705EF92FF920F9349
:100B40001F93CF93DF9300D000D000D00F92CDB78A
:100B5000DEB78E010F5F1F4F27E0F80111922A9533
:100B6000E9F74AE0B8010E94DC067E01F8E0EF0EEA
:100B7000F11CF80181918F0181110E94A4010E15D1
:100B80001F05B9F727960FB6F894DEBF0FBECDBF8D
:100B9000DF91CF911F910F91FF90EF900895EF9209
:100BA000FF920F931F93CF93DF9300D000D000D01C
:100BB000CDB7DEB78E010F5F1F4F26E0F80111920F
:100BC0002A95E9F74AE0B8010E9418077E01F6E08D
:100BD000EF0EF11CF80181918F0181110E94A40197
:100BE0000E151F05B9F726960FB6F894DEBF0FBE97
:100BF000CDBFDF91CF911F910F91FF90EF9008959E
:100C0000EF92FF920F931F93CF93DF93CDB7DEB791
:100C10002B970FB6F894DEBF0FBECDBF8E010F5FCE
:100C20001F4F2BE0F80111922A95E9F72AE0A8015D
:100C30000E94E7067E01FCE0EF0EF11CF8018191B5
:100C40008F0181110E94A4010E151F05B9F72B9683
:100C50000FB6F894DEBF0FBECDBFDF91CF911F91CD
:100C60000F91FF90EF900895EF92FF920F931F93D3
:100C7000CF93DF93CDB7DEB72B970FB6F894DEBFD7
:100C80000FBECDBF8E010F5F1F4F2BE0F8011192F9
:100C90002A95E9F72AE0A8010E94F6067E01FBE00A
:100CA000EF0EF11CF80181918F0181110E94A401C6
:100CB0000E151F05B9F72B960FB6F894DEBF0FBEC1
:100CC000CDBFDF91CF911F910F91FF90EF900895CD
:100CD00080E880936100109261000E944D018FEBCB
:100CE00090E00E946A0584E090E00E942C0181E07F
:100CF00090E00E942C0180917C00806480937C00B5
:100D000080917C008F7780937C0080917A00846052
:100D100080937A0080917A00826080937A0080913B
:100D20007A00816080937A0084E090E00E94ED0078
:100D300080917A00806880937A0080917A00806444
:100D400080937A00C4E0D0E080917A0084FFFCCFE9
:100D500080917A00806180937A0085EB90E0C430C6
:100D6000D10511F08CEA90E00E946A05809178002C
:100D7000909179000E94CF0580917A008F778093BF
:100D80007A00219781F0C1E0D0E0CE010E94ED0011
:100D900080917A00806880937A0080917A008064E4
:100DA00080937A00D1CFC4E0D0E0EFCFEE0FFF1FE9
:100DB0000590F491E02D0994BB274A3031F4992332
:100DC00022F4BDE2909581959F4F0C941907BB27A3
:100DD0002A3051F4992342F4BDE2909580957095A4
:100DE00061957F4F8F4F9F4F0C94F706BB27FA01F9
:100DF000A62F6217710581059105330B30FB66F054
:100E0000AA27660F771F881F991FAA1FA21710F025
:100E1000A21B63953850A9F7A05DAA3308F0A95D1D
:100E2000A19336F7B111B1931082CA010C94320725
:100E3000BB27FB015527AA27880F991FAA1FA417B4
:100E400010F0A41B83955051B9F7A05DAA3308F0A8
:100E5000A95DA193009779F7B111B1931192CB01DC
:100E60000C943207DC01FC01672F71917723E1F7C5
:100E7000329704C07C916D9370836291AE17BF0767
:100E8000C8F30895F894FFCF91038C03870382037E
:100E90007D03780373036E03690364035F035A03DE
:100EA000550350034B03460341033C03370332030E
:100EB0002D03280323031E03190314030F030A033E
:100EC00005030003FB02F602F102EC02E702E20274
:100ED000DD02D802D302CE02C902C402BF02BA02A6
:100EE000B502B002AB02A602A1029C0297029202D6
:100EF0008D02880283027E02790274026F026A0206
:0A0F0000650260025B025602510216
:080F0A0000E1000000000800F6
:00000001FF
