:100000000C94B0000C94CD000C94CD000C94CD0059
:100010000C94CD000C94CD000C94CD000C94CD002C
:100020000C94CD000C94CD000C9489030C94C10366
:100030000C94CD000C94CD000C94CD000C94CD000C
:100040000C94CD000C94CD000C94CD000C94CD00FC
:100050000C94CD000C94CD000C94CD000C94CD00EC
:100060000C94CD000C94CD000C94CD000C94CD00DC
:100070000C94CD000C94CD000C94CD000C94CD00CC
:100080000C94CD000C94CD000C94CD000C94CD00BC
:100090000C94CD000C94CD000C94CD000C94CD00AC
:1000A0000C94CD000C94CD000C94CD000001000008
:1000B0004301120002000000014300030000FC00A5
:1000C0000401030904E8001202030904E000060326
:1000D000030904D600080803340031003000000092
:1000E00006034D003200000012034A002E002000DB
:1000F0004600690065006E00650000000403090405
:1001000009024300020100C032090400000102029A
:100110000100052400100105240101010424020648
:1001200005240600010705820310004009040100B0
:10013000020A0000000705030240000007058402D0
:100140004000001201000202000010C0167A0400F4
:1001500001010203010001C1120180360181360054
:1001600011241FBECFEFDAE0DEBFCDBF11E0A0E06B
:10017000B1E0E4E9FDE002C005900D92A830B107BE
:10018000D9F721E0A8E0B1E001C01D92AE30B2077E
:10019000E1F70E9410060C9487060C940000CF93A0
:1001A000DF93C9B1C6FBCC27C0F981E0C827D0E0F6
:1001B00080910801909109018C179D0751F0CE01A3
:1001C0000E9477058AE00E944C018DE00E944C015C
:1001D0004B9AD0930901C0930801DF91CF91089504
:1001E0008091E80080FFFCCF089581E08093D700E4
:1001F00080EA8093D80082E189BD09B400FEFDCF7A
:1002000080E98093D8001092E00010920D011092C6
:100210000A018CE08093E2007894089580910D01AA
:1002200008959FB7F89480910D01811103C09FBF7D
:100230008FEF089583E08093E9008091E80085FFC7
:10024000F6CF8091F1002091E80025FD03C02BE658
:100250002093E8009FBF08959FB7F89480910D0107
:10026000882329F083E08093E9008091F2009FBF0A
:10027000089580910D01882359F08FB7F89493E089
:100280009093E9002BE69091E80095FD02C08FBFA6
:1002900008952093E800F7CF90910D01911102C0CD
:1002A0008FEF08959FB7F89424E02093E900209100
:1002B0000B01222341F02091E80025FD02C09FBFE1
:1002C000EFCF10920B012091E400275E34E04091C3
:1002D000E80045FD12C09FBF9091E400921304C056
:1002E00081E080930B01DCCF90910D019923C1F245
:1002F0009FB7F8943093E900EACF8093F1008091A2
:10030000E80085FD03C08AE38093E80085E08093E0
:100310000C019FBF80E0089590910D01992351F049
:100320009FB7F89424E02093E9002091E80025FD90
:1003300003C09FBF8FEF08958093F1008091E80084
:1003400085FD03C08AE38093E80085E080930C017B
:100350009FBF80E0089520910D01211102C08FEF11
:1003600008952FB7F89434E03093E90030910B01F1
:10037000332341F03091E80035FD02C02FBFEFCFAD
:1003800010920B0134E040E45AE3A5E061157105D9
:1003900019F42FBF80E00895E091E400E75EF0914A
:1003A000E800F5FD12C02FBF2091E4002E1304C019
:1003B00081E080930B01D3CF20910D01222379F2AC
:1003C0002FB7F8943093E900EACFE091F200B42F10
:1003D000BE1BB617170611F008F0B62FEB2FF0E092
:1003E0006E1B7F0BB13408F03FC1E757F94F0C94F7
:1003F0001B06FC0181918093F100CF01FC018191EA
:100400008093F100CF01FC0181918093F100CF0135
:10041000FC0181918093F100CF01FC0181918093D7
:10042000F100CF01FC0181918093F100CF01FC012B
:1004300081918093F100CF01FC0181918093F100C3
:10044000CF01FC0181918093F100CF01FC018191EA
:100450008093F100CF01FC0181918093F100CF01E5
:10046000FC0181918093F100CF01FC018191809387
:10047000F100CF01FC0181918093F100CF01FC01DB
:1004800081918093F100CF01FC0181918093F10073
:10049000CF01FC0181918093F100CF01FC0181919A
:1004A0008093F100CF01FC0181918093F100CF0195
:1004B000FC0181918093F100CF01FC018191809337
:1004C000F100CF01FC0181918093F100CF01FC018B
:1004D00081918093F100CF01FC0181918093F10023
:1004E000CF01FC0181918093F100CF01FC0181914A
:1004F0008093F100CF01FC0181918093F100CF0145
:10050000FC0181918093F100CF01FC0181918093E6
:10051000F100CF01FC0181918093F100CF01FC013A
:1005200081918093F100CF01FC0181918093F100D2
:10053000CF01FC0181918093F100CF01FC018191F9
:100540008093F100CF01FC0181918093F100CF01F4
:10055000FC0181918093F100CF01FC018191809396
:10056000F100CF01FC0181918093F100CF01FC01EA
:1005700081918093F100CF01FC0181918093F10082
:10058000CF01FC0181918093F100CF01FC018191A9
:100590008093F100CF01FC0181918093F100CF01A4
:1005A000FC0181918093F100CF01FC018191809346
:1005B000F100CF01FC0181918093F100CF01FC019A
:1005C00081918093F100CF01FC0181918093F10032
:1005D000CF01FC0181918093F100CF01FC01819159
:1005E0008093F100CF01FC0181918093F100CF0154
:1005F000FC0181918093F100CF01FC0181918093F6
:10060000F100CF01FC0181918093F100CF01FC0149
:1006100081918093F100CF01FC0181918093F100E1
:10062000CF01FC0181918093F100CF01FC01819108
:100630008093F100CF01FC0181918093F100CF0103
:10064000FC0181918093F100CF01FC0181918093A5
:10065000F100CF01FC0181918093F100CF01FC01F9
:1006600081918093F100CF01FC0181918093F10091
:10067000CF01E091E800E5FF5093E800A0930C0162
:1006800085CE8FB7F89490910C01992341F094E0B6
:100690009093E9009AE39093E80010920C018FBFC9
:1006A0000895809104010895809105010895809135
:1006B0000601089580910A0108959FB7F89420914A
:1006C0000D01211103C09FBF8FEF089522E02093F9
:1006D000E9003091E80035FFF6CF31EA3093F100C0
:1006E00030E23093F1001092F1001092F10010927C
:1006F000F1001092F1002093F1001092F10080932C
:10070000F1001092F1008AE38093E8009FBF80E03F
:1007100008951F921FB61F9211248F939F9380916B
:10072000E1001092E10083FF11C01092E90091E016
:100730009093EB001092EC0092E19093ED0098E022
:100740009093F00010920D0110920A0182FF13C0E5
:1007500080910D01882379F080910C01882359F054
:10076000815080930C01811106C084E08093E900E0
:100770008AE38093E8009F918F911F901FBE1F9086
:1007800018951F920F920FB60F921124EF92FF92BD
:100790000F931F932F933F934F935F936F937F9389
:1007A0008F939F93AF93BF93CF93DF93EF93FF9379
:1007B0001092E9008091E80083FF72C0D091F100AF
:1007C000C091F100E090F1008091F100F82E0091CD
:1007D000F1008091F100182F8091F1009091F100CB
:1007E00022EF2093E800C63009F066C02CEA30E022
:1007F000F90145915491E416F50609F04AC0F90152
:100800003296459154910417150709F042C0F90139
:10081000349645915491F9013696E4918F3F9105B4
:1008200019F010F08FEF90E0E81708F48E2F3EEFEC
:100830009091E800292F2570D9F392FD13C0982FCD
:10084000813108F090E1FA01292F21112FC0490FC1
:10085000511DE82FE91B9E2F3093E800E11124C0C1
:10086000803110F5FF91EF91DF91CF91BF91AF9162
:100870009F918F917F916F915F914F913F912F91B8
:100880001F910F91FF90EF900F900FBE0F901F9050
:100890001895295F3F4F40E0263D340709F0A8CF67
:1008A00081E28093EB00DECF892FC2CF6491609309
:1008B000F10021503196C9CFC53051F48EEF8093AD
:1008C000E8000E94F0008E2D80688093E300CACF7C
:1008D000C93069F5D111E4CFE0920D0110920A01FF
:1008E00010920C018EEF8093E80021E085E591E005
:1008F0002093E900AC014F5F5F4FFC0134913093CE
:10090000EB00332391F0FA0144914093EC003196CF
:10091000E4910396E093ED002F5F253049F78EE1D7
:100920008093EA001092EA009DCFCA01F5CFC8304B
:1009300069F4D03809F0B4CF0E94F00080910D0125
:100940008093F1008EEF8093E8008CCFC13289F460
:10095000D13A09F0A5CF0E94F00080E091E0FC01BF
:100960002191CF012093F100F1E087309F07B9F783
:10097000E9CFC032B1F4D13209F092CF8091E800D2
:1009800082FFFCCF80E091E02091F100FC012193F7
:10099000CF01F1E087309F07B9F78BEF8093E80034
:1009A000D1CFC23241F4D13209F07ACFE0920A01BC
:1009B0000E94F000C7CFC11112C00E94F000D238CF
:1009C00049F40093E900C091EB00C5FBCC27C0F9C6
:1009D0001092E900C093F1001092F100B3CF8C2F78
:1009E0008D7F813009F05CCFD23009F059CFEF28EC
:1009F00009F056CF0F778FEF800F843008F050CF7B
:100A00008EEF8093E8000093E900C33009F448CFEB
:100A100089E18093EB0081E090E001C0880F0A95A6
:100A2000EAF77ECF1F93CF93DF93EC01FE01149181
:100A3000112351F01A3019F48DE00E944C01812FDE
:100A40000E944C012196F2CFDF91CF911F91089522
:100A500097E38A3008F490E3890F0C944C01CF930C
:100A6000C82F82958F700E9428058C2F8F70CF9190
:100A70000C942805CF93C82F892F0E942F058C2F07
:100A8000CF910C942F050C942F05EF92FF920F93AA
:100A90001F93CF93DF9300D000D000D00F92CDB73B
:100AA000DEB78E010F5F1F4F27E0F80111922A95E4
:100AB000E9F74AE0B8010E9421067E01F8E0EF0E56
:100AC000F11CF80181918F0181110E944C010E15DA
:100AD0001F05B9F727960FB6F894DEBF0FBECDBF3E
:100AE000DF91CF911F910F91FF90EF900895EF92BA
:100AF000FF920F931F93CF93DF9300D000D000D0CD
:100B0000CDB7DEB78E010F5F1F4F26E0F8011192BF
:100B10002A95E9F74AE0B8010E945D067E01F6E0F9
:100B2000EF0EF11CF80181918F0181110E944C019F
:100B30000E151F05B9F726960FB6F894DEBF0FBE47
:100B4000CDBFDF91CF911F910F91FF90EF9008954E
:100B5000EF92FF920F931F93CF93DF93CDB7DEB742
:100B60002B970FB6F894DEBF0FBECDBF8E010F5F7F
:100B70001F4F2BE0F80111922A95E9F72AE0A8010E
:100B80000E942C067E01FCE0EF0EF11CF801819121
:100B90008F0181110E944C010E151F05B9F72B968C
:100BA0000FB6F894DEBF0FBECDBFDF91CF911F917E
:100BB0000F91FF90EF900895EF92FF920F931F9384
:100BC000CF93DF93CDB7DEB72B970FB6F894DEBF88
:100BD0000FBECDBF8E010F5F1F4F2BE0F8011192AA
:100BE0002A95E9F72AE0A8010E943B067E01FBE076
:100BF000EF0EF11CF80181918F0181110E944C01CF
:100C00000E151F05B9F72B960FB6F894DEBF0FBE71
:100C1000CDBFDF91CF911F910F91FF90EF9008957D
:100C200080E880936100109261000E94F5005A9A5A
:100C30000E94CF00FDCFEE0FFF1F0590F491E02D35
:100C40000994BB274A3031F4992322F4BDE29095F0
:100C500081959F4F0C945E06BB272A3051F499234F
:100C600042F4BDE290958095709561957F4F8F4FCE
:100C70009F4F0C943C06BB27FA01A62F6217710503
:100C800081059105330B30FB66F0AA27660F771FAD
:100C9000881F991FAA1FA21710F0A21B6395385036
:100CA000A9F7A05DAA3308F0A95DA19336F7B111A9
:100CB000B1931082CA010C947706BB27FB0155271C
:100CC000AA27880F991FAA1FA41710F0A41B8395A9
:100CD0005051B9F7A05DAA3308F0A95DA193009720
:100CE00079F7B111B1931192CB010C947706DC0125
:100CF000FC01672F71917723E1F7329704C07C9153
:100D00006D9370836291AE17BF07C8F30895F8948E
:100D1000FFCF390334032F032A03250320031B03CA
:100D2000160311030C0307030203FD02F802F3028A
:100D3000EE02E902E402DF02DA02D502D002CB02BF
:100D4000C602C102BC02B702B202AD02A802A302EF
:100D50009E02990294028F028A02850280027B021F
:100D6000760271026C02670262025D02580253024F
:100D70004E02490244023F023A02350230022B027F
:100D8000260221021C02170212020D0208020302AF
:040D9000FE01F90166
:080D940000E10000000008006E
:00000001FF
