:100000000C9456000C9460000C9460000C946000FA
:100010000C9460000C9460000C9460000C946000E0
:100020000C9460000C9460000C9460000C946000D0
:100030000C9460000C9460000C9460000C946000C0
:100040000C9460000C9460000C9460000C946000B0
:100050000C9460000C9460000C9460000C946000A0
:100060000C9460000C9460000C9460000C94600090
:100070000C9460000C9460000C9460000C94600080
:100080000C9460000C9460000C9460000C94600070
:100090000C9460000C9460000C9460000C94600060
:1000A0000C9460000C9460000C94600011241FBE3E
:1000B000CFEFDAE0DEBFCDBF0E94E0010C94AA04CE
:1000C0000C9400002F923F924F925F926F927F921A
:1000D0008F929F92AF92BF92CF92DF92EF92FF9258
:1000E0000F931F93CF93DF9300D000D0CDB7DEB72F
:1000F0006B017C01CA01B90120E030E040E251E42B
:100100000E94DE022B013C0120E030E040E251E49D
:10011000C701B6010E94DE0220E030E04AE754E465
:100120000E943D040E945003072E000C880B990B7F
:100130000E9488034B015C0120E030E04AE755E46F
:100140000E943D046B017C010E94570369837A83FE
:100150008B839C8320E030E040E85FE3C701B60179
:100160000E94D90201E010E087FD02C009811A81D6
:100170001A82198280E9282E3324339429813A8106
:10018000B901330F880B990B0E948803A3019201D8
:100190000E943D0420E030E04CE153E40E943D0425
:1001A0000E945003709399006093980020E030E023
:1001B00040E85FE3C701B6010E94D90287FD3CC059
:1001C00020E03FEF4FE757E4C701B6010E94380433
:1001D000181694F520E030E040E251E4C501B40186
:1001E0000E943D040E94570361157105F9F489814D
:1001F0009A8101969A8389830B9709F0BFCF0F905C
:100200000F900F900F90DF91CF911F910F91FF9062
:10021000EF90DF90CF90BF90AF909F908F907F90A6
:100220006F905F904F903F902F900895C10101977C
:10023000F1F761507109D8CFC8010197F1F7D7CF15
:100240002F923F924F925F926F927F928F929F92E6
:10025000AF92BF92CF92DF92EF92FF920F931F93D4
:10026000CF93DF9300D000D0CDB7DEB76B017C0118
:10027000CA01B90120E030E040E251E40E94DE0210
:100280002B013C0120E030E040E251E4C701B6011F
:100290000E94DE0220E030E04AE754E40E943D0480
:1002A0000E945003072E000C880B990B0E948803B4
:1002B0004B015C0120E030E04AE755E40E943D0438
:1002C0006B017C010E94570369837A838B839C8333
:1002D00020E030E040E85FE3C701B6010E94D902A8
:1002E00001E010E087FD02C009811A812AE030E0B8
:1002F0003A83298380E9282E3324339429813A8153
:10030000B901330F880B990B0E948803A301920156
:100310000E943D0420E030E04CE153E40E943D04A3
:100320000E945003709399006093980020E030E0A1
:1003300040E85FE3C701B6010E94D90287FD3CC0D7
:1003400020E03FEF4FE757E4C701B6010E943804B1
:10035000181694F520E030E040E251E4C501B40104
:100360000E943D040E94570361157105F9F48981CB
:100370009A8101979A838983019609F0BFCF0F90E4
:100380000F900F900F90DF91CF911F910F91FF90E1
:10039000EF90DF90CF90BF90AF909F908F907F9025
:1003A0006F905F904F903F902F900895C1010197FB
:1003B000F1F761507109D8CFC8010197F1F7D7CF94
:1003C00080E880936100109261003E9A80919100D4
:1003D000846080939100809191008D7F8093910043
:1003E0008091910081608093910080919100806163
:1003F000809391008091910088608093910080911A
:100400009000826080939000809190008E7F809316
:10041000900080919000806880939000809190007F
:100420008F7B809390008CE990E09093970080936D
:10043000960000E911E0C5E1D0E0C12CD12C80EAA2
:10044000E82E81E4F82E20E030E040EA51E4C701D4
:10045000B6010E94DE022B013C0120E030E040E2C8
:1004600052E4C701B6010E94DE024B015C01A30108
:1004700092016DEC7CEC8CEC9DE30E946200A30188
:1004800092016DEC7CEC8CEC9EE30E942001A501B6
:1004900094016DEC7CEC8CEC9DE30E946200A50164
:1004A00094016DEC7CEC8CEC9EE30E94200180E2D8
:1004B0009EE4F8013197F1F70197D9F720E030E099
:1004C00040E85FE3C701B6010E946C026B017C014A
:1004D000219709F0B8CFAFCF5058BB27AA270E9469
:1004E00084020C94FE030E94F00338F00E94F7038C
:1004F00020F039F49F3F19F426F40C94ED030EF428
:10050000E095E7FB0C94E703E92F0E940F0458F3F2
:10051000BA17620773078407950720F079F4A6F5E8
:100520000C9431040EF4E0950B2EBA2FA02D0B0184
:10053000B90190010C01CA01A0011124FF27591B28
:1005400099F0593F50F4503E68F11A16F040A22F2E
:10055000232F342F4427585FF3CF4695379527959F
:10056000A795F0405395C9F77EF41F16BA0B620B9E
:10057000730B840BBAF09150A1F0FF0FBB1F661FE5
:10058000771F881FC2F70EC0BA0F621F731F841F28
:1005900048F4879577956795B795F7959E3F08F04E
:1005A000B0CF9395880F08F09927EE0F9795879510
:1005B00008950E94C30308F481E008950E94F202A6
:1005C0000C94FE030E94F70358F00E94F00340F0E1
:1005D00029F45F3F29F00C94E70351110C94320485
:1005E0000C94ED030E940F0468F39923B1F3552393
:1005F00091F3951B550BBB27AA2762177307840736
:1006000038F09F5F5F4F220F331F441FAA1FA9F3CB
:1006100035D00E2E3AF0E0E832D091505040E695B9
:10062000001CCAF72BD0FE2F29D0660F771F881F1A
:10063000BB1F261737074807AB07B0E809F0BB0B0D
:10064000802DBF01FF2793585F4F3AF09E3F510521
:1006500078F00C94E7030C9432045F3FE4F3983E87
:10066000D4F3869577956795B795F7959F5FC9F70A
:10067000880F911D9695879597F90895E1E0660F8B
:10068000771F881FBB1F621773078407BA0720F004
:10069000621B730B840BBA0BEE1F88F7E09508956D
:1006A0000E9457036894B1110C94320408950E947B
:1006B000170488F09F5798F0B92F9927B751B0F0D9
:1006C000E1F0660F771F881F991F1AF0BA95C9F7D6
:1006D00014C0B13091F00E943104B1E008950C943F
:1006E0003104672F782F8827B85F39F0B93FCCF3F2
:1006F000869577956795B395D9F73EF49095809553
:10070000709561957F4F8F4F9F4F0895E89409C072
:1007100097FB3EF490958095709561957F4F8F4F34
:100720009F4F9923A9F0F92F96E9BB279395F6954A
:10073000879577956795B795F111F8CFFAF4BB0FC8
:1007400011F460FF1BC06F5F7F4F8F4F9F4F16C02C
:10075000882311F096E911C0772321F09EE8872FB6
:10076000762F05C0662371F096E8862F70E060E072
:100770002AF09A95660F771F881FDAF7880F9695EB
:10078000879597F90895990F0008550FAA0BE0E88F
:10079000FEEF16161706E807F907C0F01216130643
:1007A000E407F50798F0621B730B840B950B39F483
:1007B0000A2661F0232B242B252B21F408950A26E9
:1007C00009F4A140A6958FEF811D811D089597F929
:1007D0009F6780E870E060E008959FEF80EC0895E7
:1007E00000240A9416161706180609060895002410
:1007F0000A9412161306140605060895092E03948A
:10080000000C11F4882352F0BB0F40F4BF2B11F4FD
:1008100060FF04C06F5F7F4F8F4F9F4F089557FD5C
:100820009058440F551F59F05F3F71F04795880F5E
:1008300097FB991F61F09F3F79F0879508951216F5
:1008400013061406551FF2CF4695F1DF08C01616A1
:1008500017061806991FF1CF869571056105089452
:100860000895E894BB2766277727CB0197F9089569
:100870000E94C30308F48FEF08950E9450040C9463
:10088000FE030E94F00338F00E94F70320F0952346
:1008900011F00C94E7030C94ED0311240C94320432
:1008A0000E940F0470F3959FC1F3950F50E0551F00
:1008B000629FF001729FBB27F00DB11D639FAA27B5
:1008C000F00DB11DAA1F649F6627B00DA11D661F04
:1008D000829F2227B00DA11D621F739FB00DA11D25
:1008E000621F839FA00D611D221F749F3327A00DDF
:1008F000611D231F849F600D211D822F762F6A2F7B
:1009000011249F5750409AF0F1F088234AF0EE0FDF
:10091000FF1FBB1F661F771F881F91505040A9F70C
:100920009E3F510580F00C94E7030C9432045F3F26
:10093000E4F3983ED4F3869577956795B795F79548
:10094000E7959F5FC1F7FE2B880F911D96958795C0
:0809500097F90895F894FFCF18
:00000001FF
