:100000000C9456000C9460000C9460000C946000FA
:100010000C9460000C9460000C9460000C946000E0
:100020000C9460000C9460000C9460000C946000D0
:100030000C9460000C9460000C9460000C946000C0
:100040000C9460000C9460000C9460000C946000B0
:100050000C9460000C9460000C9460000C946000A0
:100060000C9460000C9460000C9460000C94600090
:100070000C9460000C9460000C9460000C94600080
:100080000C9460000C9460000C9460000C94600070
:100090000C9460000C9460000C9460000C94600060
:1000A0000C9460000C9460000C94600011241FBE3E
:1000B000CFEFDAE0DEBFCDBF0E9462000C94610298
:1000C0000C94000080E880936100109261003E9AD9
:1000D0008091910084608093910080919100816073
:1000E0008093910080919100806180939100809134
:1000F000910088608093910080919000826080934D
:100100009000809190008E7F80939000809190006D
:10011000806880939000809190008F7B8093900006
:100120008CE990E09093970080939600C0E9D1E02D
:100130000BE010E0C12CD12C76012DEC3CEC4CEC0A
:100140005DE3C701B6010E94F40120E030E04CE11C
:1001500053E40E94F4010E9474017093990060932B
:1001600098008CE291E0FE013197F1F70197D9F701
:1001700020E030E040E85FE3C701B6010E940801DB
:100180006B017C0101501109C1F6809190008068DB
:10019000809390000BE010E0C12CD12C80E2E82E7F
:1001A00081E4F82E2DEC3CEC4CEC5DE3C701B6018C
:1001B0000E94F40120E030E04CE153E40E94F4019D
:1001C0000E94740170939900609398008CEB92E008
:1001D000FE013197F1F70197D9F720E030E040E8D0
:1001E0005FE3C701B6010E9407016B017C0101506A
:1001F0001109C1F688E893E1FE013197F1F7019703
:10020000D9F78091900080688093900091CF5058EA
:10021000BB27AA270E941F010C94BA010E94AC01BF
:1002200038F00E94B30120F039F49F3F19F426F40E
:100230000C94A9010EF4E095E7FB0C94A301E92FBF
:100240000E94CB0158F3BA1762077307840795071A
:1002500020F079F4A6F50C94ED010EF4E0950B2E48
:10026000BA2FA02D0B01B90190010C01CA01A00108
:100270001124FF27591B99F0593F50F4503E68F163
:100280001A16F040A22F232F342F4427585FF3CFA4
:10029000469537952795A795F0405395C9F77EF475
:1002A0001F16BA0B620B730B840BBAF09150A1F0BE
:1002B000FF0FBB1F661F771F881FC2F70EC0BA0F44
:1002C000621F731F841F48F4879577956795B795CC
:1002D000F7959E3F08F0B0CF9395880F08F09927C7
:1002E000EE0F9795879508950E94D30188F09F5748
:1002F00098F0B92F9927B751B0F0E1F0660F771F4A
:10030000881F991F1AF0BA95C9F714C0B13091F03F
:100310000E94ED01B1E008950C94ED01672F782F54
:100320008827B85F39F0B93FCCF386957795679504
:10033000B395D9F73EF490958095709561957F4F70
:100340008F4F9F4F089597F99F6780E870E060E0B6
:1003500008959FEF80EC089500240A94161617065E
:1003600018060906089500240A94121613061406A6
:1003700005060895092E0394000C11F4882352F009
:10038000BB0F40F4BF2B11F460FF04C06F5F7F4FC1
:100390008F4F9F4F089557FD9058440F551F59F0A8
:1003A0005F3F71F04795880F97FB991F61F09F3F62
:1003B00079F087950895121613061406551FF2CF8B
:1003C0004695F1DF08C0161617061806991FF1CFDB
:1003D00086957105610508940895E894BB27662702
:1003E0007727CB0197F908950E9407020C94BA0170
:1003F0000E94AC0138F00E94B30120F0952311F067
:100400000C94A3010C94A90111240C94EE010E94F8
:10041000CB0170F3959FC1F3950F50E0551F629F7C
:10042000F001729FBB27F00DB11D639FAA27F00D4D
:10043000B11DAA1F649F6627B00DA11D661F829F74
:100440002227B00DA11D621F739FB00DA11D621F59
:10045000839FA00D611D221F749F3327A00D611D76
:10046000231F849F600D211D822F762F6A2F112458
:100470009F5750409AF0F1F088234AF0EE0FFF1F8B
:10048000BB1F661F771F881F91505040A9F79E3FE2
:10049000510580F00C94A3010C94EE015F3FE4F34E
:1004A000983ED4F3869577956795B795F795E79538
:1004B0009F5FC1F7FE2B880F911D9695879597F941
:0604C0000895F894FFCF3F
:00000001FF
